:100000000C943E000C945B000C94670E0C948E0EC6
:100010000C945B000C945B000C945B000C945B00F4
:100020000C945B000C945B000C945B000C945B00E4
:100030000C945B000C945B000C945B000C945B00D4
:100040000C945B000C945B000C945B000C945B00C4
:100050000C945B000C945B000C945B000C945B00B4
:100060000C945B000C945B000C945B000C945B00A4
:100070000C945B000C945B000C945B0011241FBE7D
:10008000CFEFCDBFDFE3DEBF18E3A0E0B8E3E6E7E4
:10009000FEE302C005900D92A038B107D9F72AE31C
:1000A000A0E8B8E301C01D92A03FB207E1F70E94AB
:1000B0001C0D0C941D1D0C940000E0E0F6E081E0A6
:1000C000868B94E0918393E4928390E493831482EB
:1000D000148611861286168215822FEF33E0248B48
:1000E000358B128A138A808380E0089580910B06F5
:1000F000817008958093060681E0809308060E942F
:1001000076008823E1F3809110069091110621E09A
:1001100020930B060895E0E1F8E0108212828EE051
:10012000868381E0838315821782148210868481FE
:100130008860848385818160858310928E381092D7
:100140008F380895E0E1F8E0108212828EE0868315
:1001500013821582178214821086848188608483BA
:100160008581816085830895E0E8F8E384851486BD
:10017000089580918038811106C08091150880957E
:1001800081708170089581E0FCCF009721F0809309
:100190008E3890938F38089510928038E0E1F8E01F
:1001A00085818160858388E0089580918138909170
:1001B0008238880F81608093170884E008958091C9
:1001C000813890918238880F8093170883E00895D2
:1001D000E0E1F8E083818E7F838383818160838384
:1001E00085818160858308950E94E800109280389F
:1001F00080E00895E0E1F8E08481836084830895DD
:10020000E0E8F8E310828FEF90E08183928313821D
:100210001482178210861586E0E1F8E08581806CF3
:10022000858383818F73838385818160858308952E
:100230000E94FA000E94000180E00895B0E0A0E072
:10024000E4E2F1E00C94621C5C016B017A01E901CB
:100250000E94B900811125C081E080938038A0926E
:100260008138B092823880938B38C0928338D09294
:100270008438E0928538F0928638C0938738D093DE
:1002800088380093893810938A3810928C380E94ED
:10029000DF0080938D3881E0CDB7DEB7EAE00C94C3
:1002A0007B1C80E0F9CFEF92FF920F931F93CF93C7
:1002B000DF937C018B01EA010E94B900811125C006
:1002C00081E080938038E0928138F09282381092F9
:1002D0008B380093873810938838C0938938D0932F
:1002E0008A38109283381092843810928538109290
:1002F000863810928C380E94D50080938D3881E02A
:10030000CDB7DEB7E6E00C947F1C80E0F9CF80919A
:10031000853890918638892BC1F0809185389091ED
:10032000863801978093853890938638E09183389A
:10033000F0918438CF01019680938338909384386C
:1003400080818093180883E0089580918B388823FA
:1003500021F010928B3881E008950E94FA000E94EB
:10036000000180E008950E94FA000E94000180E0F0
:100370000895E0E1F8E08581806C85830E94E800C3
:100380001092803880E008958091893890918A3861
:10039000019739F580911408846080931408809146
:1003A000893890918A3801978093893890938A3858
:1003B000E0918738F0918838892BB9F0809118083E
:1003C0008083809187389091883801968093873810
:1003D000909388388091140882608093140884E098
:1003E0000895809114088B7FD8CF8091180880835E
:1003F00080918738909188380196809387389093C0
:100400008838809114088460809314080E94FA0050
:100410000E94000180E00895EF92FF920F931F93D6
:10042000CF93DF937C018B01EA010E94B900811117
:1004300025C081E080938038E0928138F092823844
:1004400010928B380093833810938438C09385388A
:10045000D093863810928738109288381092893855
:1004600010928A3810928C380E94DF0080938D3869
:1004700081E0CDB7DEB7E6E00C947F1C80E0F9CFD9
:100480008091150882FF22C086E080938D3883E03A
:1004900080938C3880911508846080931508E091D2
:1004A0008D38F0E0EE0FFF1FE25CF5440190F08123
:1004B000E02D099580938D3880918C38882329F020
:1004C000E0918E38F0918F38099508958091170842
:1004D000882371F08091150884FF0AC085E080931D
:1004E0008D3881E080938C38809115088061D5CF5C
:1004F00080911808882349F08091150884FF05C071
:1005000085E080938D3882E0EDCF8091150883FFE0
:10051000C6CF86E080938D3883E080938C388091BD
:1005200015088860BACF0E94B9008823E9F180914C
:10053000150884FF0CC08091150886FF08C08091C3
:10054000150882FD04C08091150883FF07C08091C3
:10055000150882FD03C08091150883FD0E944002AA
:100560008091150887FD04C08091150886FF1CC086
:100570008091150884FD08C08091150882FD04C093
:100580008091150883FF03C00E9440020895E09106
:100590008D38F0E0EE0FFF1FE25CF5440190F08132
:1005A000E02D099580938D380895FC0164BF408348
:1005B000089548E168ED80E890E00E94D502E0E807
:1005C000F0E082E08183118612861386108680E037
:1005D000089544E068ED80E590E00E94D50280E057
:1005E000089549E068ED80E091E00E94D50240E086
:1005F00068ED81E091E00E94D50280E008950E94BC
:100600006C030E9424030E9491030E945D000E94DB
:10061000D9020E948B000E94E9020E94AE030E9450
:1006200074040E94F1020E941603089540E268EDEE
:1006300080E191E00E94D502E0E1F1E0128288E0E1
:100640008383789480E00895CF93DF93C0E0D4E073
:100650001C82A0E2B4E084E014968C931497E0E44A
:10066000F4E0148290EC988395E89C9393E2908355
:10067000188A98E8998B2AE82A8B9B8B1C8A1D8AFA
:100680008E8B94E89F8B50961C92509751961C929B
:10069000519752961C92529753961C925397549688
:1006A0008C93549755968C93559732E056963C937D
:1006B000569757969C93908B118A228B138A148A93
:1006C000858B168A178AE0E0F2E01082118212828E
:1006D0001382DF91CF91089540E068ED80E690E0CD
:1006E0000E94D50243E068ED81E690E00E94D502C9
:1006F00040E068ED82E690E00E94D50240E068EDBF
:1007000080E790E00E94D50240E068ED88E790E045
:100710000E94D50240E068ED8CE790E00E94D5028F
:100720000895E0E0FAE081E083831182128214826E
:100730001582168611A613A615A611A296E297A3F6
:100740008287138610A612A614A610A282EC86A396
:100750008FE0808308958093210A0895E0E0F8E017
:1007600083E896E08087918780E8858380EC8683A4
:1007700083E08783138614861686158683E494E0C7
:100780008093EC3A9093ED3A83E794E08093EA3AD1
:100790009093EB3A82E794E08093EE3A9093EF3AAD
:1007A00010929038109291380895E0E0F8E01086A9
:1007B0001186158216821782138614861686158670
:1007C0000895E0E0F8E08681806486830895E0E0A3
:1007D000F8E086818F7B8683089580910408869552
:1007E0008170089580910408881F8827881F0895C4
:1007F0008091040885FB882780F90895809104087A
:1008000086FB882780F908951092903810929138CD
:100810008091010882FF0CC08091903882608093A3
:100820009038E091EC3AF091ED3A309709F0099563
:100830008091010881FF0CC0809190388160809385
:100840009038E091EE3AF091EF3A309709F009953F
:100850008091010886FF0CC080919038846080935D
:100860009038E091EA3AF091EB3A309709F0099527
:100870008091903890919138089580910008089562
:100880008093020808950895009721F08093EC3A30
:100890009093ED3A0895009721F08093EA3A90936F
:1008A000EB3A0895009721F08093EE3A9093EF3A57
:1008B0000895E0E0F8E08681846086838481816029
:1008C00084830895882319F00E9459040895809123
:1008D0000608897F80930608809104088D7F8093A5
:1008E0000408089508950895E0EAF0E080E1808327
:1008F00011821282138280E00895CF93DF93EC017E
:100900000E94B1100E94AC10AE0160E080E00E9435
:10091000491144E95AEB60E081E00E944911DF91FE
:10092000CF910895CF93DF93C091EB388DE1C89FAD
:10093000E0011124FE01EE56F74C0480F581E02D14
:100940000995CE018256974C0E947D041092E93899
:10095000DF91CF9108958DE1EAE3F8E3A2E9B8E3EE
:1009600001900D928A95E1F78DE1EDE1F8E3AFEAB0
:10097000B8E301900D928A95E1F78DE1E0E0F8E3AC
:10098000ACECB8E301900D928A95E1F7089580915F
:10099000EA38882381F08091E938882361F0E0917A
:1009A000EB388DE1E89FF0011124EE56F74C0190F1
:1009B000F081E02D099508958091EA38811109C0F0
:1009C0001092EB388EE998E30E947D0481E08093D9
:1009D000EA3808958091EA388823C9F08091EB388D
:1009E00090E02091E938222371F02DE1289FF00159
:1009F000299FF00D1124EE56F74C0480F581E02D6F
:100A000009951092E9381092EA380E94B1100895C1
:100A1000CF93DF938091EA388823B9F08091EB3847
:100A2000282F30E09091E938992391F08DE1829F51
:100A3000F001839FF00D1124EE56F74C0084F185F0
:100A4000E02D099581110E949204DF91CF910895C4
:100A50008F5F833081F08093EB38C091EB388DE16C
:100A6000C89FE0011124C256D74C0E94AC10CE01A1
:100A70000E943D11EACF1092EB38EFCFCF93DF9376
:100A80008091EA388823B9F08091EB38282F30E044
:100A90009091E938992391F08DE1829FF001839F35
:100AA000F00D1124EE56F74C0680F781E02D0995E4
:100AB00081110E949204DF91CF910895811111C09C
:100AC00082E08093EB38C091EB388DE1C89FE00164
:100AD0001124C256D74C0E94AC10CE010E943D1189
:100AE000EACF8150EECF2091EB3830E08091EA38A8
:100AF000811110C01092EB384DE1429FC001439F1D
:100B0000900D11248256974C0E947D0481E08093C1
:100B1000EA3808958091E938882389F08DE1829F31
:100B2000F001839FF00D1124EE56F74C0284F385FB
:100B3000E02D0995882391F00E949204089581E0A8
:100B40008093E9388DE1829FF001839FF00D11249D
:100B5000EE56F74C0280F381E02D09950895089533
:100B600080E0089581E008959AB186E0EDEAFAEB1D
:100B7000ACEEB8E301900D928A95E1F7E9EAFAEB61
:100B800091FF02C0E5EAFAEB83E0A2EFB8E301903F
:100B90000D928A95E1F74CEE58E360E080E00E9408
:100BA000491144EB5AEB69E081E00E944911089534
:100BB00061E082E00E94E61982E0809347040E948F
:100BC000B40580E008950E94B40508950E94B11014
:100BD0000E94B4050895089521E03091053931113E
:100BE00001C020E047E059E3BC018DEF98E30E948B
:100BF000041747E059E360E080E00E94491148E1B2
:100C000059E360E081E00E9449110895CF93DF939A
:100C100080910639813009F491C048F0823009F49E
:100C200092C0833009F492C0DF91CF910895EDE036
:100C3000F9E38CE1DF011D928A95E9F786E0EBEBA1
:100C4000FAEBA7E0B9E301900D928A95E1F7809164
:100C50000539813019F48FED80930C39E0919C397E
:100C6000F0E0EE0FFF1FE65AF74C60817181EB0157
:100C700009900020E9F72197C61BD70BAE018DE044
:100C800099E30E948B1CCE0106968031910554F4A5
:100C900040E150E0481B590B60E270E0895F964CE0
:100CA0000E94A61C1092173947E059E360E080E0EB
:100CB0000E944911EDE0F9E38BE0DF011D928A9576
:100CC000E9F786E0E2ECFAEBA7E0B9E301900D92D8
:100CD0008A95E1F780910539823019F48FED809380
:100CE0000C39E0919B39F0E0EE0FFF1FE059F74C13
:100CF00060817181EB0109900020E9F72197C61B03
:100D0000D70BAE018DE099E30E948B1CCE010696B5
:100D10008031910554F440E150E0481B590B60E2EA
:100D200070E0895F964C0E94A61C1092173947E02C
:100D300059E360E081E00E94491176CF89EC9AEB9B
:100D40000E94EC0571CF81ED9AEBFACF89ED9AEB19
:100D5000F7CFA8E0B0E0EFEAF6E00C94681C9091C1
:100D6000063980910539E92FF0E0EF51F5443081E3
:100D70002FEF290F381366C010920539E1E9F9E326
:100D8000913031F0E6E9F9E3923011F0F0E0E0E083
:100D90002230D0F4309779F08091043980838091AB
:100DA0000339818380910239828380910139838361
:100DB0008091003984830E94D1180E94060680E049
:100DC0002896E4E00C94811C9330B9F78E010F5FF4
:100DD0001F4F88E0F80111928A95E9F784E0898332
:100DE00065E08DEF98E30E9480158A8364E08DEFC3
:100DF00098E30E9480158B8363E08DEF98E30E9457
:100E000080158C8362E08DEF98E30E9480158D83BE
:100E100086E08E8361E08DEF98E30E9480158F83DA
:100E200060E08DEF98E30E9480158887F894E09148
:100E300011BCF09112BC41E068E070E0C801099576
:100E40007894BBCF8F5F80930539233008F0B5CFFE
:100E50008330A9F048F4813079F0823009F0ADCFC9
:100E600081E08093FD38A9CF853069F050F086305D
:100E700009F0A3CF85E0F5CF1092FD389ECF82E038
:100E8000F0CF83E0EECF84E0ECCF0E94B11010925F
:100E90000639109205390E9406060895A7E0B0E0D1
:100EA000E4E5F7E00C94681C809106398130C9F4C0
:100EB0001092FE38E1E9F9E3309709F45CC0109232
:100EC000FD38808180930439818180930339828148
:100ED0008093023983818093013984818093003922
:100EE0004AC0823029F41092FE38E6E9F9E3E4CFF3
:100EF000833009F040C08E010F5F1F4F87E0F8017B
:100F000011928A95E9F7F894E09113BCF09114BC22
:100F100060E084E00995E09115BCF09116BC67E0B3
:100F200070E0C8010995789481E08093FE3849818A
:100F300065E08DEF98E30E94BC154A8164E08DEF77
:100F400098E30E94BC154B8163E08DEF98E30E940B
:100F5000BC154C8162E08DEF98E30E94BC154E8178
:100F600061E08DEF98E30E94BC154F8160E08DEF4A
:100F700098E30E94BC152796E4E00C94811C9091A4
:100F800005398091063991110CC0833049F18F5F8A
:100F9000809306390E944E070E94B1100E940606F7
:100FA0000DC0882339F0843048F48DEF98E30E9417
:100FB000E314F4CF913021F0923051F080E00895A5
:100FC00080919C398A30D0F78F5F80939C39E6CF2F
:100FD00080919B39873090F78F5F80939B39DECF6C
:100FE00081E00895909105398091063991110CC0E6
:100FF000882349F18150809306390E944E070E9450
:10100000B1100E9406060DC0882339F0843048F4E0
:101010008DEF98E30E943315F4CF913021F0923098
:1010200051F080E0089580919C398823D1F381505C
:1010300080939C39E6CF80919B39882391F381502E
:1010400080939B39DECF81E008950895089581E073
:101050000895AFE0B0E0EFE2F8E00C945C1CB8E07B
:101060006B2E8E010F5F1F4FD801E62D1D92EA9562
:10107000E9F780912939813009F485C050F0823038
:1010800009F420C1833009F4FEC12F96E0E10C94ED
:10109000751C0E943B134C010E947B135C01382D90
:1010A000292DF8EE8F16F3E09F0614F037EE23E0BB
:1010B000832F922F89312CEF920714F489E19CEF52
:1010C0005A2D4B2DA8EEAA16A3E0BA0614F057EE3F
:1010D00043E0252F342F2931BCEF3B0714F429E1DD
:1010E0003CEFEAE0F0E0BF010E94E41B7B013C0121
:1010F000C901BF010E94E41B6B012C0197FE06C0D1
:10110000F194E194F108719461947108B7FE08C0FC
:10111000CC24DD24C61AD70A44245524481A590A77
:10112000E0E3F9E38BE0DF011D928A95E9F786E0C1
:10113000E1EFFAEBAAE2B9E301900D928A95E1F7AB
:10114000BAE0EB16F1040CF0E8C180E2809330398C
:1011500097FCD7C1A7E0B0E0FD01E65DF64C80E268
:1011600080834D01EFEF8E1A9E0A4AE0B801C70155
:101170000E94AD1CFAE0EF16F1040CF0DDC1EE2484
:10118000E394F12CDCC10E94ED1326B12074B22E41
:101190008031B7E29B0710F08FE097E264E670E0E1
:1011A0000E94D01B7B014C01E0E3F9E38BE0DF01FF
:1011B0001D928A95E9F786E0E3E0FBEBAAE2B9E34A
:1011C00001900D928A95E1F74AE0B801C7010E94AB
:1011D000AD1CCC24C394D12CBAE0EB16F10418F06A
:1011E00062E0C62ED12CA601B80180E399E30E94EB
:1011F0008B1C8EE2F601E05DF64C80837601E7E021
:10120000EE0EF11C88E0D8011D928A95E9F7BAE04C
:101210008B16910448F4F701E65DF64C80E3808379
:101220007601E8E0EE0EF11C4AE0B801C4010E942C
:10123000AD1CCC24C394D12CFAE08F16910418F085
:1012400042E0C42ED12CA601B801C701865D964CA0
:101250000E948B1CC7018C0D9D1DFC01E65DF64CA8
:1012600020E236E52083318302968E30910551F0DD
:101270004EE050E0481B590B60E270E0865D964CF2
:101280000E94A61C4AE259E360E080E00E944911F6
:10129000E4E3F9E387E0DF011D928A95E9F785E051
:1012A000EAE0FBEBAAE2B9E301900D928A95E1F73F
:1012B000E5EEFAEBB11002C0EBEEFAEB85E0AFE23F
:1012C000B9E3D6C17E01B9E0EB0EF11C87E0F7016E
:1012D00011928A95E9F7F894E09113BCF09114BC4F
:1012E00060E084E00995E09115BCF09116BC67E0E0
:1012F00070E0C701099578948984FA84EB84DC84D2
:10130000CE849F846AE2A62E69E3B62E71E1772E21
:10131000D501E72D1D92EA95E9F7892D82958F7009
:101320004AE0B80190E00E94AD1C898180932A397F
:10133000892D8F704AE0B80190E00E94AD1C898130
:1013400080932B39EDE29E2E90922C394AE0B80121
:10135000C4FA882780F990E00E94AD1C89818093AF
:101360002D398C2D8F704AE0B80190E00E94AD1CA1
:10137000898180932E3990922F398D2D90E0F4E061
:1013800095958795FA95E1F74AE0B801837099271A
:101390000E94AD1C8981809330398D2D8F704AE079
:1013A000B80190E00E94AD1C898180933139A5017C
:1013B00060E080E00E944911D8011D926A94E9F72B
:1013C000F50111927A94E9F78E2D90E0A4E09595BD
:1013D0008795AA95E1F74AE0B801837099270E94A2
:1013E000AD1C898180932A398E2D8F704AE0B80117
:1013F00090E00E94AD1C898180932B39BAE3EB2EDB
:10140000E0922C398F2D90E024E0959587952A95D0
:10141000E1F74AE0B801877099270E94AD1C8981E5
:1014200080932D398F2D8F704AE0B80190E00E9493
:10143000AD1C898180932E39E0922F39882D90E060
:1014400034E0959587953A95E1F74AE0B8018770C1
:1014500099270E94AD1C898180933039882D8F7027
:101460004AE0B80190E00E94AD1C89818093313937
:1014700088E0E0E1FBEB87FC03C087E0E9E1FBEB00
:10148000A2E3B9E3F5C089E0E2E3F9E3DF01282F45
:101490001D922A95E9F7E1E2FBEBAAE2B9E301909C
:1014A0000D928A95E1F74AE0B80180919F399091B9
:1014B000A0390E94AD1CF80101900020E9F7319796
:1014C0007F01E01AF10AA701B80183E399E30E94C2
:1014D0008B1CC70109968D30910554F44DE050E006
:1014E000481B590B60E270E0865D964C0E94A61C7A
:1014F0004AE259E360E080E00E9449114BE25BEB75
:10150000BDC08DE2809331394AE0B801C7010E9425
:10151000AD1C58E0852E912C32CEA6E0B0E097FEAF
:101520001BCE8DE2809330394AE0B801C7010E949A
:10153000AD1C37E0832E912CA2E0EA2EF12CA701FE
:10154000B801C401865D964C0E948B1CE80CF91C06
:10155000F701E65DF64C8EE28083F8E09F2ED8011D
:10156000E92D1D92EA95E9F74AE0B801C3010E940E
:10157000AD1CF701E55DF64C89818083D701A45D40
:10158000B64C83E0E8EFFAEB01900D928A95E1F713
:101590004AE259E360E080E00E944911D8011D92BF
:1015A0009A94E9F7E0E3F9E38BE0DF011D928A9575
:1015B000E9F786E0ECEFFAEBAAE2B9E301900D92CD
:1015C0008A95E1F7BAE0CB16D104ECF480E280937F
:1015D0003039B7FC58C0A7E0B0E0FD01E65DF64C3D
:1015E00080E280835D01EFEFAE1ABE0A4AE0B801E7
:1015F000C6010E94AD1CFAE0CF16D1049CF4EE2483
:10160000E394F12C12C0A6E0B0E0B7FEE6CF8DE285
:10161000809330394AE0B801C6010E94AD1C27E032
:10162000A22EB12CE2E0EE2EF12CA701B801C501EB
:10163000865D964C0E948B1CEA0CFB1CF701E65D54
:10164000F64C8EE2808388E0D8011D928A95E9F7F6
:101650004AE0B801C2010E94AD1CF701E55DF64CFD
:1016600089818083D701A45DB64C83E0E8EFFAEB73
:1016700001900D928A95E1F74AE259E360E081E03A
:101680000E94491102CD8DE2809331394AE0B801C0
:10169000C6010E94AD1C98E0A92EB12CB0CF80915C
:1016A0002939833018F48F5F809329390E94B11053
:1016B0000E94290880E0089580912939882319F033
:1016C0008150809329390E94B1100E94290880E03E
:1016D00008950E94B110109229390E942908089596
:1016E0000E9429080895CF93E0915CBAF0915DBA09
:1016F0000995C82F89E39BEB0E94E2128C2F0E9470
:10170000251383EC9BEB0E94E212CF910895813068
:1017100021F4109262390E943E050895813021F42F
:10172000109262390E940805089580E8809325048C
:1017300080930504E7EEF3E03197F1F700C0000075
:10174000809326040E94D1100895882399F0813057
:1017500099F41092623980913D3981110DC08091C8
:101760005738823021F40E94950B0E94DC040E94BD
:101770007305089510923D39089587E19CEB80939D
:101780006439909365390E94950B85E49BEB0E9428
:101790003D1160E081E00E94911085E59BEB0E9485
:1017A0003D110895882319F00E94950B089580E853
:1017B00080932504E7EEF3E03197F1F700C00000D5
:1017C000809306040895A4E0B0E0E9EEFBE00C94F9
:1017D000681C0DE01CEBD801ED91FC910995198274
:1017E0001A8287E28B831C82D8011496ED91FC91BA
:1017F00041E064E070E0CE01019609952496E4E0B2
:101800000C94811CA9E0B0E0E8E0FCE00C94681CBA
:101810008E010F5F1F4F87E0F80111928A95E9F75B
:10182000F894E09113BCF09114BC60E084E0099559
:10183000E09115BCF09116BC67E070E0C801099515
:101840007894498165E08AE599E30E94BC154A8154
:1018500064E08AE599E30E94BC154B8163E08AE568
:1018600099E30E94BC154C8162E08AE599E30E94ED
:10187000BC154E8161E08AE599E30E94BC154F8159
:1018800060E08AE599E30E94BC15898187FF13C057
:1018900094E098878F778987F894E09111BCF09154
:1018A00012BC41E062E070E0CE01089609957894A0
:1018B00083E00E94B7192996E4E00C94811C90E023
:1018C00021E098130AC090E080E021E0E62FE1508B
:1018D000FF0BAF018617D0F00895209345043FEF2A
:1018E00040E752E0315040405040E1F700C0000076
:1018F00020934604EFEFF0E732E0E150F040304053
:10190000E1F700C00000A8959F5FDBCF209345045E
:10191000E7E8F3E13197F1F700C0000020934604B7
:101920004817590731F0EFE5FAEE3197F1F700C0AB
:101930000000A8950196CECFCF92DF92EF92FF9252
:101940008CE59BEB0E94E2126AE579E382E599E37C
:101950000E941C166B017C016AE579E38AE499E335
:101960000E941C161C141D041E041F04F4F497FF8F
:101970001CC0E0919C39F0E0EE0FFF1FEB55F244E4
:101980002081318150E040E0C701B6010E941A1C5D
:10199000672B682B692B49F40E94ED13843F91401B
:1019A00048F488E69BEB0E94E212FF90EF90DF90F4
:1019B000CF90089584E09CEB0E94E21260E082E008
:1019C0000E94E619E0919B39F0E0EE0FFF1FE95D00
:1019D000F1448081918162E370E00E94D01B6093AA
:1019E0003B3970933C3982E080934504DECFCF933E
:1019F000C82F0E9425138AE00E942513C43479F071
:101A000038F4C33481F085E79BEB0E94E21209C0F1
:101A1000C23561F0C435B9F70E94451B02C00E946F
:101A2000881ACF9108950E94F91AFBCF88ED91E0B2
:101A300084BF90934100F5CFB0E0A0E0E2E2FDE08A
:101A40000C94631C0E94FF020E94BD0B0E94E30BDA
:101A50000E94AB040E94631982E599E38093733975
:101A6000909374398AE499E3809371399093723931
:101A70000E94DE188AE599E38093C73A9093C83AAA
:101A8000C09160BAD09161BA83E79BE0FE010995ED
:101A900087E89BE080936F399093703985EA9BE0EB
:101AA00080936D3990936E398EE89BE080936B390B
:101AB00090936C390E94020C89EA9BEB0E94E2121F
:101AC00085EC9BEB0E94E21285E799E30E94E2120B
:101AD00083EC9BEB0E94E2128FEC9BEB0E94E212E4
:101AE0008CE799E30E94E21283EC9BEB0E94E212E6
:101AF0008DED9BEB0E94E2128091583890915938FD
:101B00000E94E21283EC9BEB0E94E21289EE9BEBB7
:101B10000E94E21289EC9AE30E94E21283EC9BEBB2
:101B20000E94E2126091400080E00E94E6198FE37B
:101B30008093400060E084E00E945F0CCC24C3945A
:101B4000009152BA109153BA88EDD82EE09050BA55
:101B5000F09051BA93E1B92EA8950E942614809175
:101B60003F39882309F45CC010923F390E94A014C9
:101B70000E94C704809162398F5F809362398431FB
:101B800008F44EC051994CC036994AC0109262393F
:101B9000109257380E94EA0480E00E94D20BC09253
:101BA0004604F8010995A895D4BE80910001807F74
:101BB000809300018091500081608093500088954F
:101BC000809150008E7F80935000A895D4BE809164
:101BD00000018760809300018091010181FDFCCFAD
:101BE000F701099583E79BE0FE01099589EF9BEBDF
:101BF0000E94E21262E080E00E945F0C0E94020CF0
:101C000080915738823091F158F0853048F46091D6
:101C1000573881E00E94CE190E94950B0E94DC0487
:101C200080913E39882321F010923E390E949C0C0D
:101C30000E940B1A8091403981118ECF80914139D9
:101C4000823008F489CF90E08E5B964CFC0131978E
:101C500020812A3009F080CF109262390297FC016E
:101C600080810E94F70C1092413976CFB092623990
:101C7000D7CF809163398F5F843119F180936339B5
:101C800080913B3990913C39892BD1F080913B393F
:101C900090913C39019780933B3990933C398091E6
:101CA0003B3990913C39892B59F460E082E00E94E5
:101CB000E61982E0809346048FEF9BEB0E94E212CC
:101CC00008951092633981E080933F39D9CF1F92F4
:101CD0000F920FB60F9211242F933F934F935F9360
:101CE0006F937F938F939F93AF93BF93EF93FF93E4
:101CF0000E94390E81E080930B0AFF91EF91BF9112
:101D0000AF919F918F917F916F915F914F913F9193
:101D10002F910F900FBE0F901F9018951F920F924A
:101D20000FB60F9211248F939F93EF93FF9380919F
:101D30008A0080FF03C081E080938A0080910B06B7
:101D400080FF03C081E080930B061A9B0CC090912A
:101D5000573881E0911180E080933D3983E0809392
:101D6000573884E083B93E9B05C084E080935738A0
:101D700080E487B95A9B08C081E080933E3982E0B5
:101D80008093573884E08BB98091040887FF13C093
:101D900081E0809340398091413990910008E82F8B
:101DA000F0E0EE5BF64C90838F5F883069F08093B3
:101DB000413910924039FF91EF919F918F910F908F
:101DC0000FBE0F901F90189510924139F2CFE0E4AA
:101DD000F4E080818F7E80838081877F8083089577
:101DE000809140048F7E809340048091480484FF5A
:101DF000FCCF0895E0E4F4E08081877F808308953C
:101E0000E0E4F4E080818061808380818860808369
:101E10000E94FA0E0E94F00E0895882319F00E9485
:101E2000F00E089580914004806180934004809179
:101E300044048F7E809344040895882319F00E94FF
:101E4000FA0E089580914004886080934004809148
:101E50004404877F80934404089580E00E941D0F0E
:101E600082E08A95F1F700C080E00E940D0F82E0C9
:101E70008A95F1F700C081E008958091480484FFBD
:101E80000BC08091400480618093400480914404A1
:101E90008F7E809344040895809140048F7E8093C8
:101EA00040048091480484FFFCCF0895CF93DF93D2
:101EB000D82FC8E08D2F881F8827881F0E941D0FEC
:101EC0000E943D0F82E08A95F1F700C00E943D0F0D
:101ED000DD0F82E08A95F1F700C0C15059F780917B
:101EE0004004877F809340040E943D0F8091480406
:101EF00083FD15C082E08A95F1F700C00E943D0F76
:101F0000809140048860809340040E94FA0E82E031
:101F10008A95F1F700C081E0DF91CF91089580E0CC
:101F2000FBCFB0E0A0E0E7E9FFE00C94651CD82E01
:101F3000192F7B01042F0E942D0F811107C010E083
:101F4000812FCDB7DEB7E7E00C947E1C82EA0E94B9
:101F5000560F8823A1F3CD2DD12FEC0EFD1E10E0DE
:101F6000CE15DF0531F089910E94560F182F81118F
:101F7000F7CF0E94F00E002319F382E08A95F1F763
:101F800000C00E94FA0EDCCFA1E0B0E0EAECFFE076
:101F90000C946A1C8983462F61E070E0CE010196A3
:101FA0000E94910F2196E2E00C94831C8F929F92E5
:101FB000BF92CF92DF92EF92FF920F931F93CF9336
:101FC000DF936C018B017A0180914004877F8093BD
:101FD0004004C7E0D0E0B12C88248394912C0E9467
:101FE0003D0F8091480483FF07C0C4010C2E01C03F
:101FF000880F0A94EAF7B82A82E08A95F1F700C0C0
:102000000E943D0F22E02A95F1F700C0219738F792
:10201000F601EE0DFF1DB082809140048860809330
:10202000400401501109E016F106F0F480E00E942E
:102030001D0F0E943D0F22E02A95F1F700C00E947B
:102040003D0F0E94FA0E82E08A95F1F700C081E010
:10205000DF91CF911F910F91FF90EF90DF90CF9084
:10206000BF909F908F9008950E94FA0E0E943D0F9E
:1020700022E02A95F1F700C00E943D0FE4CFCF92F5
:10208000DF92EF92FF920F931F93CF936C017B012E
:102090000E942D0F81110AC0C0E08C2FCF911F919B
:1020A0000F91FF90EF90DF90CF90089583EA0E9408
:1020B000560F10E000E0C0E0882371F3E016F1064F
:1020C00049F40E94F00E82E08A95F1F700C00E9468
:1020D000FA0EE3CFA801B701C6010E94D60FC82FA0
:1020E000882379F30F5F1F4FE9CFA2E0B0E0EBE761
:1020F000F0E10C946A1CE0916439F09165393097F5
:1021000061F090E899838A830480F581E02D41E0B5
:1021100062E070E0CE01019609952296E2E00C940F
:10212000831CA4E0B0E0E7E9F0E10C946A1C19829A
:102130001A8220E430E02B833C83E82FF0E0EE0F9E
:10214000FF1FEC0FFD1F8181860F80680E947510B4
:102150002496E2E00C94831C60E080E00E949110E1
:10216000089581E00E9475100895A2E0B0E0EBEBC5
:10217000F0E10C946A1CE0916439F0916539309774
:1021800061F090E499838A830480F581E02D41E039
:1021900062E070E0CE01019609952296E2E00C948F
:1021A000831CE0916439F09165390190F081E02D54
:1021B00009952FE788E391E0215080409040E1F7B6
:1021C00000C0000088E00E9475108AE20E9475102D
:1021D00089E70E94751085ED0E94751080E70E94C6
:1021E000751088E70E94751088E00E94751086E0DF
:1021F0000E94751082E70E94751080E00E94B51061
:102200008AE20E94751089E70E9475108AED0E948B
:10221000751080E00E9475108CED0E94751080E0B2
:102220000E94751081E80E9475108FE70E9475105A
:1022300089ED0E94751081EF0E9475108BED0E9450
:10224000751080E30E94751088E70E94751088E27F
:102250000E94751081E00E94751080E80E94751040
:102260002FE788E391E0215080409040E1F700C0E3
:1022700000008CE00E9475100895CF93DF93EC016D
:102280008991811103C0DF91CF9108950E94B5100B
:10229000F7CFCF93DF93EA010E949110CE010E9405
:1022A0003D11DF91CF910895E0E0F4E080818F7ED1
:1022B000808380818F7D80830895809100048F7E4C
:1022C000809300048091080484FFFCCF0895E0E02F
:1022D000F4E080818F7D80830895E0E0F4E08081E8
:1022E000806180838081806280830E9467110E9468
:1022F0005D110895882319F00E945D110895809161
:102300000004806180930004809104048F7E809398
:1023100004040895882319F00E946711089580919C
:102320000004806280930004809104048F7D809378
:102330000404089580E00E948A1182E08A95F1F7F2
:1023400000C080E00E947A1182E08A95F1F700C017
:1023500081E008958091080484FF0BC080910004FF
:10236000806180930004809104048F7E8093040434
:102370000895809100048F7E80930004809108046A
:1023800084FFFCCF0895CF93DF93D82FC8E08D2F23
:10239000881F8827881F0E948A110E94AA1182E044
:1023A0008A95F1F700C00E94AA11DD0F82E08A959C
:1023B000F1F700C0C15059F7809100048F7D8093E0
:1023C00000040E94AA118091080485FD15C082E0D6
:1023D0008A95F1F700C00E94AA11809100048062E2
:1023E000809300040E94671182E08A95F1F700C093
:1023F00081E0DF91CF91089580E0FBCFB0E0A0E0D5
:10240000E4E0F2E10C94651CD82E192F7B01042F17
:102410000E949A11811107C010E0812FCDB7DEB75D
:10242000E7E00C947E1C88E70E94C3118823A1F387
:10243000CD2DD12FEC0EFD1E10E0CE15DF0531F0B5
:1024400089910E94C311182F8111F7CF0E945D114D
:10245000002319F382E08A95F1F700C00E9467110A
:10246000DCCFA1E0B0E0E7E3F2E10C946A1C8983E1
:10247000462F61E070E0CE0101960E94FE11219688
:10248000E2E00C94831C8F929F92BF92CF92DF92D6
:10249000EF92FF920F931F93CF93DF936C018B0109
:1024A0007A01809100048F7D80930004C7E0D0E022
:1024B000B12C88248394912C0E94AA118091080445
:1024C00085FF07C0C4010C2E01C0880F0A94EAF7EB
:1024D000B82A82E08A95F1F700C00E94AA1122E092
:1024E0002A95F1F700C0219738F7F601EE0DFF1D90
:1024F000B082809100048062809300040150110931
:10250000E016F106F0F480E00E948A110E94AA1100
:1025100022E02A95F1F700C00E94AA110E946711DB
:1025200082E08A95F1F700C081E0DF91CF911F91A1
:102530000F91FF90EF90DF90CF90BF909F908F9082
:1025400008950E9467110E94AA1122E02A95F1F7CE
:1025500000C00E94AA11E4CFCF92DF92EF92FF92C7
:102560000F931F93CF936C017B010E949A118111ED
:102570000AC0C0E08C2FCF911F910F91FF90EF9078
:10258000DF90CF90089589E70E94C31110E000E02A
:10259000C0E0882371F3E016F10649F40E945D1152
:1025A00082E08A95F1F700C00E946711E3CFA8018D
:1025B000B701C6010E944312C82F882379F30F5F29
:1025C0001F4FE9CFEF92FF920F931F93CF93DF93AB
:1025D000EC0100916EBA10916FBAE0906ABAF09077
:1025E0006BBA8991811105C0CDB7DEB7E6E00C94D6
:1025F0007F1CF80109958823E1F3FE013197808162
:10260000F7010995EECFB0E0A0E0E9E0F3E10C942A
:10261000641CEC018C01060F171FE0906EBAF0905D
:102620006FBAC0906ABAD0906BBAC017D10729F4BC
:10263000CDB7DEB7E8E00C947D1CF701099588233F
:10264000E1F38991F6010995F0CF0F931F93CF9392
:10265000C82F00916EBA10916FBAF80109958823BE
:10266000E1F3E0916ABAF0916BBA8C2F0995CF91A2
:102670001F910F910895E0EAF0E080818F788083C8
:10268000808180618083E0E0F6E082818F7C8283BC
:10269000828182838AE0858381E28A95F1F7000056
:1026A0008EE10E947A008EE10E947A00E0E0F1E182
:1026B00031A120A144E0969587954A95E1F7AC01B8
:1026C000431B510937FD539530E0AAE0B0E00E946A
:1026D000391CDA019B01AC010E944F1CDC01CB01CB
:1026E00080589F4FAF4FBF4F892F9A2FAB2FBB27DB
:1026F0008C5A9A4008950F931F93CF93DF93C0E4B1
:10270000C0930504809102068F7C8093020680911D
:1027100002068061809302068AE08093050689EFB5
:1027200090E00197F1F700C0000089E00E947A0074
:1027300089E00E947A009C01A4E036952795AA952D
:10274000E1F7C093060488E290E029323105A0F158
:102750002A3C93E03907F0F5EDEDFCEB90E080E0EA
:10276000C191D191AC014F5F5F4F2C173D0758F1DC
:10277000608171812617370730F5880F991FFC019A
:10278000EF5DF34400811181440F551FFA01EF5DA5
:10279000F34480819181801B910B6C1B7D0B0E9407
:1027A000D01B2C1B3D0B629FC001639F900D729F3D
:1027B000900D1124800F911F8C5A9A40DF91CF9178
:1027C0001F910F910895CA014D35510549F690E0CA
:1027D00080E0F2CF8AEC93E0EFCFE0EAF0E0808196
:1027E0008F788083808180628083E0E0F6E0828160
:1027F0008F7C82838281828380E2858381E28A95D5
:10280000F1F7000088E00E947A0088E00E947A00D8
:102810009C0184E0369527958A95E1F7A0EEBEE20B
:102820000E94391C2DE533E040E050E00E94F81B87
:10283000CA01B9016B5F7F4F8F4F9F4F2AE030E095
:1028400040E050E00E94F81BC9010895CF93139B0C
:1028500034C094E0129B33C082E0C2B1C695C1700F
:10286000C92BC82B80916A398C1709F466C08091F6
:1028700069398C1741F086E20E94AB0382E08093B5
:102880000B0AC093693980910B0A81FF54C082E022
:1028900080930B0AE0916F39F09170393097B9F05D
:1028A00080916A3984709C2F947059F081110FC007
:1028B0001092663981E009950AC090E0CBCF80E0A4
:1028C000CCCF882321F0809166398823A1F3E09151
:1028D0006D39F0916E39309791F080916A3982703C
:1028E000C1FF07C081110BC01092673981E00995C3
:1028F00006C0882321F0809167398823C1F3E091D5
:102900006B39F0916C39309791F080916A39817010
:10291000C0FF07C081110BC01092683981E0099592
:1029200006C0882321F0809168398823C1F3809103
:10293000693980936A39CF91089580936939FBCFC3
:1029400080916A3982FF0EC0809166398F5F8093D3
:102950006639E0916F39F0917039309719F0823013
:1029600009F4099580916A3981FF0EC08091673919
:102970008F5F80936739E0916D39F0916E393097B0
:1029800019F0823009F4099580916A3980FF0EC0F0
:10299000809168398F5F80936839E0916B39F0914D
:1029A0006C39309719F0823009F409950895E62FB3
:1029B000F0E0E856F2442081623019F4837009F4A3
:1029C0002DE1822F08951F93CF93DF93EC0188812F
:1029D000823051F140F4882381F08130B1F0DF91F1
:1029E000CF911F910895843099F150F18530B9F756
:1029F0008A818B33A9F51A82F2CF8F81833611F445
:102A00001F82EDCF8F5F8F83EACF6E816C3011F420
:102A10008E83E5CF6F5F6E838F810E94D7149D8177
:102A20008917E8F68D83DBCF1D816E818F810E942F
:102A3000D714181710F081E0F5CF1F5F1D83CFCF9B
:102A40008C81873111F41C82CACF8F5F8C83C7CFF2
:102A50008B818B3311F41B82C2CF8F5F8B83BFCFEF
:102A60008F5F8A83BCCFCF93DF93EC018881823064
:102A700059F138F4882381F08130B1F0DF91CF91A2
:102A80000895843099F150F18530C1F78A81811120
:102A900035C08BE38A83F2CF8F81811103C083E637
:102AA0008F83ECCF8150FCCF6E81613019F48CE0C4
:102AB0008E83E4CF61506E838F810E94D7149D81F5
:102AC0008917E0F68D83DACF8D81813029F46E810C
:102AD0008F810E94D714F6CF8150F4CF8C81811161
:102AE00003C087E18C83CACF8150FCCF8B818111D9
:102AF00003C08BE38B83C2CF8150FCCF8150CACF00
:102B0000FC01623019F138F4662361F06130A1F004
:102B100020E090E00EC0643029F110F16530C1F77B
:102B2000828121C087816AE00E94C41B282F2295E0
:102B3000207F892F822B089586816AE00E94C41B22
:102B400040E1849F900111242071F3CF85816AE0D8
:102B50000E94C41B40E1849F900111242073E9CF9F
:102B60008481F5CF83816AE00E94C41B40E1849F89
:102B7000900111242077DDCFFC01623009F128F4A7
:102B8000662351F0613091F008956430B9F138F165
:102B9000653009F442C00895842F82958F704F707C
:102BA0009AE0899F400D11244783089544FB8827AC
:102BB00080F94F709AE0899F400D11244683089553
:102BC000842F90E064E0959587956A95E1F783708E
:102BD0004F709AE0899F400D112445830895842FFA
:102BE00090E054E0959587955A95E1F783704F7082
:102BF0009AE0899F400D112444830895842F90E02A
:102C000034E0959587953A95E1F787704F709AE093
:102C1000899F400D112443830895842F90E024E080
:102C2000959587952A95E1F787704F709AE0899F6F
:102C3000400D112442830895AEE0B0E0E2E2F6E1F7
:102C40000C945A1C7C011B01FC01F781FD878F2F1E
:102C5000837021E02983811101C019828D858695B9
:102C600086953981380F3E87F701068111E0812C66
:102C7000912C5401101708F4B1C0F7018381282F5B
:102C800030E050E040E029833A834B835C838481C9
:102C90003CE3839FC00111249C01990F440B550B09
:102CA0002D833E834F835887A581A150BB0B20EA1B
:102CB00035E00E94481C69877A878B879C87A0EA49
:102CC000B5E0A50194010E944F1C6B017C014D856C
:102CD000242F30E0ADE6B1E00E94391C9B01AC012D
:102CE000EE852E0F311D411D511DA0EAB5E00E9459
:102CF0004F1C4B015C01F101F781FD878F2F837021
:102D000001E009F400E08D8586958695080FF101B4
:102D10001681F1E0FE87412C512C32013E8531179E
:102D200008F466C0F1016481FCE36F9FB0011124D7
:102D3000072E000C880B990B29813A814B815C810D
:102D4000621B730B840B950BF1012381620F711DC4
:102D5000811D911D2D813E814F815885621B730B12
:102D6000840B950B29853A854B855C85621B730B1B
:102D7000840B950B681979098A099B099B01AC01A1
:102D80002C193D094E095F0969017A01658161507D
:102D9000770B4B01770FAA08BB084D85242F30E035
:102DA000ADE6B1E00E94391CA5019401260F371F42
:102DB000481F591F200F311D411D511D240D351D68
:102DC000461D571DA0EAB5E00E944F1C6C0D7D1DED
:102DD0008E1D9F1D2E96E2E10C94731C612F8D8534
:102DE0000E94D714880E911CA11CB11C1F5F42CFFA
:102DF0006E858D850E94D714480E511C611C711C74
:102E00002E852F5F2E878ACFA4E0B0E0EAE0F7E1BD
:102E10000C94611C6C015B018A01E22E19821A82FA
:102E20001B821C82FB0101900020E9F73197AF0162
:102E3000461B570BC8010E948B1CF5010190002016
:102E4000E9F7CF0101978A199B09982EEE2051F0DE
:102E5000F6012081211106C0F801E80FF11D31971C
:102E60002FED2083F6012781F2E0FF2E2A3050F467
:102E7000F801E80FF11D90E3908399249394980E44
:102E8000FF24F394F60187814AE0BE016F5F7F4F14
:102E900090E00E94AD1C4F2D50E0BE016F5F7F4F50
:102EA000C801890D911D0E948B1C892D8F0DEE206C
:102EB00009F441C1F6019081913009F03CC19FEDC8
:102EC000F801E80FF11D9083FF24F394F80EF6014A
:102ED000968172E0972E9A3050F4F801EF0DF11DB3
:102EE00090E39083E2E0FE2EF80E99249394F6018D
:102EF00086814AE0BE016F5F7F4F90E00E94AD1C6B
:102F0000492D50E0BE016F5F7F4FC8018F0D911DAD
:102F10000E948B1C8F2D890DEE2009F40EC1F60145
:102F20009081923009F009C19FEDF801E80FF11D81
:102F30009083FF24F394F80EF601958152E0952ECC
:102F40009A3050F4F801EF0DF11D90E3908362E0A8
:102F5000F62EF80E99249394F60185814AE0BE017D
:102F60006F5F7F4F90E00E94AD1C492D50E0BE0185
:102F70006F5F7F4FC8018F0D911D0E948B1CF90C54
:102F8000FFE0FF1560F08F2D90E040E150E0481B1E
:102F9000590B60E270E0800F911F0E94A61CF8019F
:102FA000108AF394F50101900020E9F73197CF01E1
:102FB0008A199B09F6012181E1E0211101C0E4E0B9
:102FC000BE2EB80E4B2D50E060E270E0C8018F0DB0
:102FD000911D0E94A61CFB0C8F2D90E0EE2051F05D
:102FE000F6012081233031F4F801E80FF91F319701
:102FF0002FED2083F601248142E0B42E2A3040F4E4
:10300000800F911F20E3FC012083F394BB24B39431
:10301000F60184814AE0BE016F5F7F4F90E00E941D
:10302000AD1C4B2D50E0BE016F5F7F4FC8018F0D6F
:10303000911D0E948B1C8F2D8B0DEE2009F47FC0FB
:10304000F6019081943009F07AC09FEDF801E80F05
:10305000F11D9083FF24F394F80EF601938122E092
:10306000B22E9A3050F4F801EF0DF11D90E39083E9
:1030700032E0F32EF80EBB24B394F60183814AE0CC
:10308000BE016F5F7F4F90E00E94AD1C4B2D50E062
:10309000BE016F5F7F4FC8018F0D911D0E948B1C79
:1030A000FB0CF6018181882389F1EE2009F449C0E7
:1030B0008081853009F045C08FEDD801AF0DB11D7D
:1030C0008C93EE24E394EF0CF60182818A30D8F5DC
:1030D000D801AE0DB11D80E38C9392E0E92EEF0C88
:1030E000FF24F394F60182814AE0BE016F5F7F4FB7
:1030F00090E00E94AD1C4F2D50E0BE016F5F7F4FEE
:10310000C8018E0D911D0E948B1CFE0CF0E2FF1574
:1031100060F08F2D90E041E250E0481B590B60E2D7
:1031200070E0800F911F0E94A61CF80111A2249646
:10313000EBE00C947A1C9DE2C3CE9DE2F6CE9AE3BE
:1031400085CF8AE3BACF82E0F82ECCCFE0917339F5
:10315000F0917439309779F080919139878380911B
:1031600092398683809193398583809194398483C1
:10317000809195398383E0917139F091723930975C
:1031800079F08091963987838091973986838091F1
:103190009839858380919939848380919A39838382
:1031A00008950E94A618F89440E150E060E070E0B5
:1031B00081E999E30E94E61C789408950F931F9388
:1031C000CF93DF9340E150E060E070E081E999E364
:1031D0000E94E21C0CE719E3C3E0D1E1899140E1D0
:1031E000B80190E00E94AD1C0E5F1F4FCD3081E111
:1031F000D807A1F78091001140E165E779E390E0FD
:103200000E94AD1C8091011140E167E779E390E0F5
:103210000E94AD1C8091021140E169E779E390E0E2
:103220000E94AD1C0E94A618DF91CF911F910F91B3
:1032300008950F931F93CF93DF93C091C339D0911B
:10324000C43920E031E02C1B3D0B26173707C8F1AD
:103250008B01FC0180919D3990919E399C012F5FDB
:103260003F4F20939D3930939E3981839283A09163
:10327000C73AB091C83A17968C91179783831696E0
:103280008C911697848315968C9115978583149647
:103290008C911497868313968C918783AB01BF0121
:1032A000CE018953964C0E948B1CC00FD11FC09336
:1032B000C339D093C43981E0DF91CF911F910F9131
:1032C000089580E0F9CFA2E1B0E0E9E6F9E10C94DD
:1032D000621CCE0101967C0180E1F70111928A9572
:1032E000E9F788E090E0898B9A8B6E01F1E1CF0ECF
:1032F000D11CE09158BAF09159BA00E110E0970161
:1033000042E050E0B60188E590E00995A0905EBAF1
:10331000B0905FBA009162BA109163BAF501099555
:10332000811122C089ECA82E8AE3B82EF7011191F1
:103330007F01812F82958F7040E1B50190E00E945E
:10334000AD1CB5016F5F7F4F1F7040E1812F90E092
:103350000E94AD1CF2E0AF0EB11CEC14FD0431F77D
:103360006296EAE00C947B1CF8010995D7CFA8E09F
:10337000B0E0EDEBF9E10C946A1CFE01319698E0A7
:10338000DF011D929A95E9F7898368E070E0CF012B
:103390000E9419192896E2E00C94831CA9E0B0E081
:1033A000E4EDF9E10C946A1CFE01319699E0DF012D
:1033B0001D929A95E9F78983698769E070E0CF01EA
:1033C0000E9419192996E2E00C94831CAFE0B0E04A
:1033D000ECEEF9E10C94681C8E010F5F1F4F9FE02B
:1033E000F80111929A95E9F7898369870E943B1346
:1033F0008A879B870E947B138C879D870E94ED1391
:103400008E879F876FE070E0C8010E9419192F9680
:10341000E4E00C94811CB0E0A0E0E1E1FAE10C945E
:103420005E1CC091C339D091C439209709F468C09B
:1034300080919F399091A0398C0F9D1F81309041D0
:1034400020F010929F391092A039E0909F39F090AF
:10345000A039F89480E2C82ED12C609054BA7090B4
:1034600055BAA0905EBAB0905FBA809062BA909060
:1034700063BAC7018F7199278601081B190BC01702
:10348000D10708F48E018F2D8F708093C539E0929B
:10349000C639A8014E5F5F4F65EC79E380E590E0A7
:1034A000F3010995F501099581112FC087E893E192
:1034B0000197F1F700C00000E00EF11EC01BD10B18
:1034C000B8016953764CAE0187EC99E30E94941CD5
:1034D000A895209771F6789480919F399091A039A2
:1034E0002091C3393091C439820F931F80939F3943
:1034F0009093A0390E94D1181092C3391092C43908
:10350000CDB7DEB7EEE00C94771CF4010995CACF75
:10351000B0E0A0E0EEE8FAE10C945A1CF89487E3DE
:103520009EEB0E94E21280915838909159380E9487
:10353000E2128AE00E942513C0919F39D091A039F0
:103540004E0195E0969487949A95E1F7CE018F719C
:103550009927892B19F08FEF881A980AF12CE12C02
:10356000B12CA12C209058BA309059BA40905EBA34
:1035700050905FBA609062BA709063BA8A149B04EC
:1035800051F481E49EEB0E94E2127894CDB7DEB74D
:10359000E2E10C94731C8F2D8F708093A139E0921F
:1035A000A2396E01C132D10518F080E2C82ED12CAB
:1035B000860123EA39E342E050E061EA79E380E5FD
:1035C00090E0F1010995F201099581110FC0CC1924
:1035D000DD09B60183EA99E30E940313A895FFEF82
:1035E000AF1ABF0A80E2E80EF11CC8CFF3010995BB
:1035F000EACFB0E0A0E0EFEFFAE10C94641C40E207
:1036000050E06FEF70E083EA99E30E94A61CF89403
:10361000D0E0C0E0009154BA109155BAE0905EBA83
:10362000F0905FBAC09062BAD09063BAD093A139DB
:10363000C093A23942E250E061EA79E380E590E08C
:10364000F8010995F701099581111CC087E893E1FC
:103650000197F1F700C00000A895A096C11590E170
:10366000D90721F7789410929F391092A0390E94BF
:10367000D11880E59EEB0E94E212CDB7DEB7E8E0FC
:103680000C947D1CF6010995DDCFB0E0A0E0EBE4E1
:10369000FBE10C94621CF894D0E0C0E0009154BAB5
:1036A000109155BAE0905EBAF0905FBAC09062BADD
:1036B000D09063BA9C2FE3EAF9E380E0292F280F2A
:1036C00021938F5F8032D1F7D093A1399093A239A3
:1036D00042E250E061EA79E380E590E0F801099583
:1036E000F701099581114AC087E893E10197F1F745
:1036F00000C00000A895A096C11590E1D907D1F6A9
:103700008DE59EEB0E94E212D0E0C0E0C09058BA76
:10371000D09059BAA09062BAB09063BAD093A13950
:10372000C093A23900E210E023EA39E342E050E01E
:1037300061EA79E380E590E0F6010995F7010995E2
:1037400081111FC060E270E083EA99E30E940313D5
:10375000A895A096C115F0E1DF0701F787E69EEB7B
:103760000E94E212789410929F391092A0390E9420
:10377000D118CDB7DEB7EAE00C947B1CF6010995B1
:10378000AFCFF5010995DACF991B79E004C0991FF5
:10379000961708F0961B881F7A95C9F780950895AB
:1037A000AA1BBB1B51E107C0AA1FBB1FA617B70767
:1037B00010F0A61BB70B881F991F5A95A9F7809583
:1037C0009095BC01CD01089597FB072E16F4009447
:1037D00007D077FD09D00E94D01B07FC05D03EF42E
:1037E000909581959F4F0895709561957F4F0895AD
:1037F000A1E21A2EAA1BBB1BFD010DC0AA1FBB1FF5
:10380000EE1FFF1FA217B307E407F50720F0A21B66
:10381000B30BE40BF50B661F771F881F991F1A94D3
:1038200069F760957095809590959B01AC01BD01FD
:10383000CF010895052E97FB1EF400940E94311CC1
:1038400057FD07D00E94F81B07FC03D04EF40C94E0
:10385000311C50954095309521953F4F4F4F5F4F0C
:10386000089590958095709561957F4F8F4F9F4FEC
:103870000895A29FB001B39FC001A39F700D811D49
:103880001124911DB29F700D811D1124911D089569
:103890000E94391CB7FF0895821B930B08950E9464
:1038A000391CA59F900DB49F900DA49F800D911D74
:1038B000112408952F923F924F925F926F927F92C0
:1038C0008F929F92AF92BF92CF92DF92EF92FF9230
:1038D0000F931F93CF93DF93CDB7DEB7CA1BDB0BDC
:1038E000CDBFDEBF09942A88398848885F846E84FA
:1038F0007D848C849B84AA84B984C884DF80EE8014
:10390000FD800C811B81AA81B981CE0FD11DCDBF55
:10391000DEBFED010895FB01DC0102C001900D92B4
:1039200041505040D8F708956817790768F4FB01B3
:10393000DC01E40FF51FA40FB51F02C002900E9228
:1039400041505040D8F708950C948B1CDC0101C005
:103950006D9341505040E0F70895BB274A3031F451
:10396000992322F4BDE2909581959F4F0C94B91C48
:10397000BB27FB015527AA27880F991FAA1FA41749
:1039800010F0A41B83955051B9F7A05DAA3308F03D
:10399000A95DA193009779F7B111B1931192CB0171
:1039A0000C94D21CDC01FC01672F71917723E1F7A5
:1039B000329704C07C916D9370836291AE17BF07FC
:1039C000C8F3089560507C4E0C948B1CDC01A40F4E
:1039D000B51F4150504048F0CB01840F951F2E91E8
:1039E0000E94F71C41505040D0F70895262F0E94A6
:1039F000191D0080021619F00E94021D01970197FF
:103A00000895262FAF93BF93E0E0F0E1328131FDBE
:103A1000FDCFDC01A050BC4E2C933DE934BF23E028
:103A200020830196BF91AF91089503D0808199279B
:0E3A30000895FC01E050FC4E0895F894FFCF7D
:103A3E00CC00D500DF008701C4011801B901B30124
:103A4E00F4008B00A2000C0253011E010000B40012
:103A5E00B900C5009302AE03D5033D044004F20342
:103A6E00F803FE03E103E7036204ED030000000028
:103A7E0000000000000004040000000000004404E8
:103A8E004B04520400003C3C20202020202020200B
:103A9E00202020203E3E004F4E20004F4646005034
:103AAE00554D503A2000544F47474C45004652451D
:103ABE00513A2000564F4C3A202000535441525454
:103ACE003A200053544F503A202000434C4F434B62
:103ADE003A20000205050620434F4E4E0020444971
:103AEE0053430043485020543A0020804300504333
:103AFE004220543A00426174743A20005553423ABF
:103B0E002000204F533A2053545000204F533A2058
:103B1E004F4B004C4F47205553453A20004C4F47D2
:103B2E00204341503A203430393600493243204543
:103B3E0072726F722120005363656E742044697334
:103B4E0070656E7365720076342E302E30005055CF
:103B5E004D5020434845434B0A004C4F5720564F7B
:103B6E004C544147450A004D454E550A443A204CA7
:103B7E004F472044554D500A543A204C4F4720543D
:103B8E004553540A433A204C4F4720434C4541522B
:103B9E000A523A2052455345540A0057505A205360
:103BAE0063656E742044697370656E7365722076FA
:103BBE00342E302E300A00436869702049443A2072
:103BCE0000436869702053657269616C3A20004445
:103BDE0065766963652049443A2000454550524F49
:103BEE004D2053657269616C3A200057414B450A6E
:103BFE0000444F4E452050554D50494E470A000047
:103C0E000FE70E910FC40F3F106D115411FE1131BD
:103C1E0012AC1215093B095B0977099109A809BD78
:103C2E0009D009E309F409050A150A240A320A40E3
:103C3E000A4E0A5B0A670A740A800A8C0A980AA35B
:103C4E000AAE0AB90AC40ACF0AD90AE40AEE0AF978
:103C5E000A030B0D0B170B210B2B0B350B3F0B49CF
:103C6E000B530B5D0B670B710B7B0B850B900B9A3C
:103C7E000BA40BAE0BB90BC30BCE0BD80BE30BEE99
:103C8E000BF90B040C100C1B0C270C330C3F0C4BBC
:103C9E000C580C650C720C800C8E0C9C0CAB0CBA78
:103CAE000CC90CD90CEA0CFB0C0D0D200D340D4873
:103CBE000D5E0D750D8D0DA60DC10DDF0DFE0D20CA
:103CCE000E460E6F0E9D0ED20E0E0F540FAA0F281B
:103CDE000032003C00460050005A0064006E00782E
:103CEE000082008C009600A000AA00B400BE00C89E
:103CFE0000D200DC00E600F000FA0004010E01180C
:103D0E000122012C01360140014A0154015E016875
:103D1E000172017C01860190019A01A401AE01B8E5
:103D2E0001C201CC01D601E001EA01F401FE010855
:103D3E000212021C02260230023A0244024E0258BD
:103D4E000262026C02760280028A0294029E02A82D
:103D5E0002B202BC02C602D002DA02E402EE02F89D
:103D6E000202030C03160320032A0334033E034806
:103D7E000352035C03660370037A0384038E039875
:103D8E0003A203AC03B603C003CA031F1C1F1E1FEE
:103D9E001E1F1F1E1F1E1F020078006801D002A0EA
:103DAE0005400BE01080166027C04E207632204D65
:103DBE00494E003620484F55525300313220484F5D
:103DCE005552530031204441590032204441595339
:103DDE000033204441595300372044415953003198
:103DEE00342044415953003231204441595300305C
:103DFE002E35206D4C0031206D4C0033206D4C0063
:103E0E00332E35206D4C003130206D4C0032302079
:103E1E006D4C003330206D4C00E204C4097C1564F7
:103E2E001928235046A08CF0D24C4F472044554DB4
:103E3E00500A000A4C4F472044554D5020454E44E1
:103E4E000A004C4F4720434C45415245440A004C12
:103E5E004F4720544553540A000A4C4F47205445AF
:083E6E00535420454E440A00A4
:103E7600E305E605AF05B005D805B20520202050BC
:103E8600554D5020544553542020202000EB054525
:103E9600072508F207BF07A90653595354454D2075
:103EA60053455454494E47532000700B690B26085E
:103EB6005C0B4F0B27082053595354454D20535440
:103EC60041545553202000010013BBBDCABDC1BDDE
:103ED600C9BDD2BDD8BDDFBDEEBDE6BDEDBDF5BDEC
:103EE600FDBD04BE09BE0EBEFFBD15BE1BBE21BE76
:02000004008179
:100000000001010000630C1F173B01040100000008
:02000004008278
:090000000058010000C4070000D3
:02000004008377
:01000000FF00
:02000004008575
:100000004E4F20494420534554000000000000009A
:00000001FF
