:100000000C946B000C9488000C9432100C946610C5
:100010000C9488000C9488000C9488000C94880040
:100020000C9488000C9488000C9488000C94880030
:100030000C9488000C9488000C9488000C94880020
:100040000C9488000C9488000C9488000C94880010
:100050000C9488000C9488000C9488000C94880000
:100060000C9488000C9488000C9488000C948800F0
:100070000C9488000C9488000C9488000800000000
:10008000BE922449123EABAAAA2ABECDCCCC4C3E8D
:1000900000000080BEABAAAAAA3E00000000BF007C
:1000A0000000803F0000000000084178D3BB438778
:1000B000D1133D190E3CC3BD4282AD2B3E68EC828C
:1000C00076BED98FE1A93E4C80EFFFBE01C4FF7F11
:1000D0003F000000000011241FBECFEFCDBFDFE3C3
:1000E000DEBF18E3A0E0B8E3E4E6FEE402C005905A
:1000F0000D92A039B107D9F72BE3A0E9B8E301C00D
:100100001D92AB30B207E1F70E94E30E0C94B525C7
:100110000C940000E0E0F6E081E0868B94E09183AF
:1001200093E4928390E4938314821486118612865A
:10013000168215822FEF33E0248B358B128A138AB7
:10014000808380E008958093060681E0809308060E
:1001500080910B0680FFFCCF8091100690911106D4
:1001600021E020930B060895E0E1F8E0108212826E
:100170008EE0868381E08383158217821482108645
:1001800084818860848385818160858310929E3814
:1001900010929F380895E0E1F8E0108212828EE01C
:1001A0008683138215821782148210868481886068
:1001B00084838581816085830895E0E9F8E38485FF
:1001C0001486089580919038811104C0809115089B
:1001D000809581700895009721F080939E389093C8
:1001E0009F3808958091150882FF21C086E0809392
:1001F0009D3883E080939C388091150884608093BB
:100200001508E0919D38F0E0EE0FFF1FE259F4432E
:100210000190F081E02D099580939D3880919C3864
:100220008823E9F1E0919E38F0919F3809948091FC
:100230001708882381F08091150884FF0CC085E0A1
:1002400080939D3881E080939C388091150880616F
:1002500080931508D6CF80911808882381F080916B
:10026000150884FF0CC085E080939D3882E0809360
:100270009C3880911508806180931508C2CF8091C9
:10028000150883FFBECF86E080939D3883E080937E
:100290009C3880911508886080931508B2CF089526
:1002A00010929038E0E1F8E085818160858388E0F4
:1002B00008958091913890919238880F8160809351
:1002C000170884E008958091913890919238880FB2
:1002D0008093170883E00895E0E1F8E08581806C61
:1002E000858383818E7F83838381816083838581FE
:1002F000816085831092903880E00895E0E1F8E015
:10030000848183608483A0E9B8E31C928FEF90E03E
:1003100011968D939C93129713961D921C9214978D
:1003200017961D921C9218971D961C928581806CC1
:10033000858383818F73838385818160858380E05A
:1003400008950C947E01E0E1F8E083818E7F838341
:100350008381816083838581816085831092903859
:1003600080E008959C018091903881112BC090917C
:10037000150890FF089581E080939038209391387C
:100380003093923810929B386093933870939438DE
:100390004093953850939638109297381092983829
:1003A0001092993810929A3810929C388091913816
:1003B00090919238880F8093170883E080939D383E
:1003C00081E0089580E008950F931F93FC018091D0
:1003D0009038811130C09091150890FD03C01F9195
:1003E0000F91089591E090939038E0939138F093B5
:1003F000923890939B3860939338709394384093DD
:1004000095385093963820939738309398380093C6
:10041000993810939A3810929C3880919138909125
:100420009238880F8093170883E080939D3881E08D
:100430001F910F91089580E01F910F9108959C01E5
:100440008091903881112CC09091150890FF0895EB
:1004500081E08093903820939138309392381092B5
:100460009B3860939738709398384093993850939D
:100470009A381092933810929438109295381092BE
:10048000963810929C388091913890919238880FCC
:1004900081608093170884E080939D3881E00895FF
:1004A00080E0089580919038811104C080911508F2
:1004B00080FD3DC08091150884FF30C080911508F3
:1004C00086FF2CC08091150882FD28C080911508F8
:1004D00083FD24C00E94F2008091150887FD04C0AE
:1004E0008091150886FF24C08091150884FD21C0E5
:1004F0008091150882FD1DC08091150883FD19C0EB
:10050000E0919D38F0E0EE0FFF1FE259F4430190B7
:10051000F081E02D099580939D380895809115080C
:1005200082FDD8CF8091150883FFD6CFD3CF089511
:1005300008950C94F2008091993890919A3801971F
:10054000D1F1809114088B7F8093140880919938A1
:1005500090919A3801978093993890939A38E091C6
:100560009738F0919838892B99F4809118088083F6
:10057000809197389091983801968093973890930E
:100580009838809114088460809314080C947E013C
:1005900080911808808380919738909198380196BF
:1005A0008093973890939838809114088260809354
:1005B000140884E0089580911408846080931408DE
:1005C000C5CF8091953890919638892B51F48091C0
:1005D0009B38882321F010929B3881E008950C9479
:1005E0007E01809195389091963801978093953847
:1005F00090939638E0919338F0919438CF0101961A
:10060000809393389093943880818093180883E086
:100610000895FC0164BF4083089548E168ED80E8D7
:1006200090E00E940903E0E8F0E082E08183118617
:1006300012861386108680E0089549E068ED80E018
:1006400091E00E94090340E068ED81E091E00E94A2
:10065000090380E008950E949B030E9453030E94B7
:10066000BF030E948A000E940D030E94B40044E070
:1006700068ED80E590E00E9409030E94DC030E947F
:10068000A1040E941D030C94450340E268ED80E143
:1006900091E00E940903E0E1F1E0128288E08383A7
:1006A000789480E00895CF93DF93C0E0D4E01C827B
:1006B000A0E2B4E084E014968C931497E0E4F4E0B4
:1006C000148290EC988395E89C9393E29083188A27
:1006D00098E8998B2AE82A8B9B8B1C8A1D8A8E8B23
:1006E00094E89F8B50961C92509751961C9251976C
:1006F00052961C92529753961C92539754968C93F1
:10070000549755968C93559732E056963C9356974E
:1007100057969C93908B118A228B138A148A858B0F
:10072000168A178AE0E0F2E01082118212821382A8
:10073000DF91CF91089540E068ED80E690E00E945F
:10074000090343E068ED81E690E00E94090340E080
:1007500068ED82E690E00E94090340E068ED80E7E2
:1007600090E00E94090340E068ED88E790E00E9475
:10077000090340E068ED8CE790E00C940903E0E0A9
:10078000FAE081E083831182128214821582168638
:1007900011A613A615A611A296E297A38287138627
:1007A00010A612A614A610A282EC86A38FE0808366
:1007B00008958093210A0895E0E0F8E083E896E048
:1007C0008087918780E8858380EC868383E08783B8
:1007D000138614861686158681E794E08093073B7E
:1007E0009093083B80EA94E08093053B9093063B0E
:1007F0008FE994E08093093B90930A3B1092A038D4
:100800001092A1380895E0E0F8E010861186158274
:100810001682178213861486168615860895E0E0E0
:10082000F8E08681806486830895E0E0F8E08681C0
:100830008F7B868308958091040886958170089542
:1008400080910408881F8827881F089580910408D4
:1008500085FB882780F908958091040886FB882706
:1008600080F908951092A0381092A1388091010863
:1008700082FF0CC08091A03882608093A038E09104
:10088000073BF091083B309709F0099580910108EA
:1008900081FF0CC08091A03881608093A038E091E6
:1008A000093BF0910A3B309709F0099580910108C6
:1008B00086FF0CC08091A03884608093A038E091BE
:1008C000053BF091063B309709F009958091A038DF
:1008D0009091A138089580910008089580930208AE
:1008E00008950895009721F08093073B9093083B6B
:1008F0000895009721F08093053B9093063B08955F
:10090000009721F08093093B90930A3B0895E0E023
:10091000F8E0868184608683848181608483089581
:1009200081110BC080910608897F80930608809111
:1009300004088D7F8093040808950C94870408951B
:100940000895E0EAF0E080E1808311821282138250
:1009500080E00895CF93DF93EC010E94C5140E94BC
:10096000E214AE0160E080E00E942D1544EC5BECE7
:1009700060E081E0DF91CF910C942D158DE1EEE3E5
:10098000F8E3A2EAB8E301900D928A95E1F78DE1D0
:10099000E1E2F8E3AFEBB8E301900D928A95E1F75D
:1009A0008DE1E4E0F8E3ACEDB8E301900D928A95B7
:1009B000E1F708958091FA38882381F08091F93821
:1009C000882361F0E091FB388DE1E89FF00111246C
:1009D000EE55F74C0190F081E02D09940895809137
:1009E000FA388823C9F08091FB3890E02091F938DB
:1009F000222371F02DE1289FF001299FF00D112491
:100A0000EE55F74C0480F581E02D09951092F938E8
:100A10001092FA380C94C5140895CF93DF93809107
:100A2000FA38882349F1C091FB382C2F30E08091AF
:100A3000F938882321F1CDE1C29FF001C39FF00D69
:100A40001124EE55F74C0084F185E02D099588239B
:100A500099F08091FB38C89FE0011124FE01EE550A
:100A6000F74C0480F581E02D0995CE018255974C15
:100A70000E94AA041092F938DF91CF910895CF5FB8
:100A8000C33081F0C093FB388DE1C89FE001112491
:100A90002C960E94E214CE018E55974CDF91CF9197
:100AA0000C94FE141092FB38CCE0D0E0F2CFCF9340
:100AB000DF938091FA38882349F1C091FB382C2FBD
:100AC00030E08091F938882321F1CDE1C29FF00117
:100AD000C39FF00D1124EE55F74C0680F781E02DF1
:100AE0000995882399F08091FB38C89FE001112473
:100AF000FE01EE55F74C0480F581E02D0995CE01FD
:100B00008255974C0E94AA041092F938DF91CF9138
:100B10000895CC2389F0C150C093FB388DE1C89F64
:100B2000E00111242C960E94E214CE018E55974CC0
:100B3000DF91CF910C94FE1482E08093FB38C6E4E1
:100B4000D0E0F1CFCF93DF938091FA388823E1F1A1
:100B50002091FB3830E08091F938882321F1CDE1F4
:100B6000C29FF001C39FF00D1124EE55F74C028493
:100B7000F385E02D0995882399F08091FB38C89F73
:100B8000E0011124FE01EE55F74C0480F581E02DC3
:100B90000995CE018255974C0E94AA041092F9380B
:100BA000DF91CF91089581E08093F9388DE1829FA4
:100BB000F001839FF00D1124EE55F74C0280F38174
:100BC000E02DDF91CF9109941092FB388EEA98E3E3
:100BD0000E94AA0481E08093FA38DF91CF910895B2
:100BE00010927D3910927E39089581E008959AB16E
:100BF00086E0EDEDFBECACEFB8E301900D928A9549
:100C0000E1F7E9EDFBEC91FF02C0E5EDFBEC808143
:100C100091818093023990930339828180930439C2
:100C20004CEF58E360E080E00E942D1544EE5BEC51
:100C300060E081E00C942D1561E082E00E94751F58
:100C400082E0809347040E94F70580E008950C94A9
:100C5000F70587EF95E080937D3990937E3981E0A9
:100C60000E9494190E94F70580E008950E94C5141F
:100C70000C94F705089521E030911539311101C028
:100C800020E047E159E3BC018DE099E30E94241C78
:100C900047E159E360E080E00E942D1548E259E306
:100CA00060E081E00C942D150F931F93CF93DF9399
:100CB00080911639823009F4D3C008F043C08823EC
:100CC00009F452C0813009F04AC043E05CEC60E0B6
:100CD00080E00E942D15E7E1F9E382E2DF011D9239
:100CE0008A95E9F780E28093173980911539813030
:100CF00019F48FED80931739E091B739F0E0EE0FDA
:100D0000FF1FE25AF74C60817181EB0109900020CE
:100D1000E9F72197C61BD70BAE0188E199E30E9442
:100D20001B252196C031D1050CF486C010922739BD
:100D300047E159E360E081E0DF91CF911F910F918E
:100D40000C942D15833009F483C0843041F484E27F
:100D50009CECDF91CF911F910F910C943B06DF919A
:100D6000CF911F910F9108950DE119E38CE1D80106
:100D70001D928A95E9F786E0E5EFFBECA7E1B9E380
:100D800001900D928A95E1F780911539813019F41F
:100D90008FED80931C39E091B639F0E0EE0FFF1F24
:100DA000E459F74C60817181EB0109900020E9F76B
:100DB0002197C61BD70BAE018DE199E30E941B253D
:100DC0002696C031D1050CF453C01092273947E163
:100DD00059E360E080E00E942D158BE0F80111924C
:100DE0008A95E9F786E0ECEFFBECA7E1B9E3019027
:100DF0000D928A95E1F780911539823019F48FEDC3
:100E000080931C39E091B539F0E0EE0FFF1FE058F8
:100E1000F74C60817181EB0109900020E9F721977F
:100E2000C61BD70BAE018DE199E30E941B252696C8
:100E3000C031D1050CF07ACF40E150E04C1B5D0B86
:100E400060E270E0CE01895E964C0E9436256ECF3E
:100E50008CE19CECDF91CF911F910F910C943B069C
:100E600084E19CECDF91CF911F910F910C943B0694
:100E700040E150E04C1B5D0B60E270E0CE01895E0A
:100E8000964C0E943625A1CF0F931F93CF93DF93EB
:100E9000CDB7DEB72897CDBFDEBF909116398091D0
:100EA0001539E92FF0E0E45DF34320812817F9F0CC
:100EB0008F5F809315399250933070F4833009F42A
:100EC0004DC010F1853009F450C008F44AC0863096
:100ED00019F485E080930D390E94540680E028962D
:100EE000CDBFDEBFDF91CF911F910F91089510927A
:100EF0001539923081F1933061F09430C1F1913025
:100F0000D9F00E94441EE8CF813021F3823011F3E2
:100F1000E3CFE0EBF9E3309779F0809114398083E7
:100F200080911339818380911239828380911139A4
:100F300083838091103984831092893910928A3981
:100F4000109285391092863910928739109288391B
:100F50000E94441EC1CFEBEAF9E3DDCF10920D39B8
:100F6000BBCF83E080930D39B7CF84E0B3CF8E0140
:100F70000F5F1F4F88E0F80111928A95E9F7998376
:100F800065E08DE099E30E94A21A8A8364E08DE017
:100F900099E30E94A21A8B8363E08DE099E30E949B
:100FA000A21A8C8362E08DE099E30E94A21A8D83DD
:100FB00086E08E8361E08DE099E30E94A21A8F8320
:100FC00060E08DE099E30E94A21A8887F894E0918E
:100FD00045CDF09146CD41E068E070E0C80109954B
:100FE00078941092893910928A391092853910922A
:100FF000863910928739109288396ECF0E94C514B5
:1010000010921639109215390C9454060F931F93B1
:10101000CF93DF93CDB7DEB72797CDBFDEBF8091EB
:101020001639823009F46DC0833009F44BC0843026
:1010300009F040C08E010F5F1F4F87E0F801119249
:101040008A95E9F7F894E09147CDF09148CD60E0BA
:1010500084E00995E09149CDF0914ACD67E070E0D8
:10106000C8010995789481E080930E39498165E043
:101070008DE099E30E940E1B4A8164E08DE099E3C4
:101080000E940E1B4B8163E08DE099E30E940E1BD2
:101090004C8162E08DE099E30E940E1B4E8161E07D
:1010A0008DE099E30E940E1B4F8160E08DE099E393
:1010B0000E940E1B2796CDBFDEBFDF91CF911F91FF
:1010C0000F91089510920E39E0EBF9E3309791F308
:1010D00010920D3980818093143981818093133966
:1010E0008281809312398381809311398481809326
:1010F00010392796CDBFDEBFDF91CF911F910F91A1
:10110000089510920E39EBEAF9E3E0CF909115398A
:101110008091163991110FC0843011F481E0089547
:101120008F5F809316390E9406080E94C5140E94A2
:10113000540680E008958130D1F050F08530C8F435
:101140008DE099E30E94E1190E94540680E0089521
:101150009130E1F0923069F48091B539873048F4EC
:101160008F5F8093B5390E94540680E008959130D6
:1011700011F080E008958091B7398630D0F78F5F05
:101180008093B7390E94540680E008958091B63963
:10119000893078F78F5F8093B6390E94540680E0DB
:1011A0000895909115398091163991110FC08111D0
:1011B00002C081E008958150809316390E9406088C
:1011C0000E94C5140E94540680E008958130D1F039
:1011D00050F08530C8F48DE099E30E94411A0E94D6
:1011E000540680E008959130E1F0923069F48091E6
:1011F000B539882349F081508093B5390E9454064F
:1012000080E00895913011F080E008958091B73921
:101210008823D1F381508093B7390E94540680E02F
:1012200008958091B639882379F381508093B63937
:101230000E94540680E008950895089581E008957D
:101240004F925F926F927F928F929F92AF92BF92D6
:10125000CF92DF92EF92FF920F931F93CF93DF9382
:10126000CDB7DEB72F97CDBFDEBF18E0F12E8E01D0
:101270000F5F1F4FD801EF2D1D92EA95E9F780917E
:101280003939813009F413C208F447C1823009F4B6
:1012900050C08330D1F589E0E2E4F9E3DF01282F83
:1012A0001D922A95E9F7E3E6FCECAAE3B9E3019085
:1012B0000D928A95E1F74AE0B8018091BA39909190
:1012C000BB390E943D25F80101900020E9F73197D4
:1012D0007F01E01AF10AA701B80183E499E30E94B3
:1012E0001B2549E0E40EF11C8DE0E816F1040CF436
:1012F000FCC24AE359E360E080E00E942D154DE610
:101300005CEC60E081E00E942D152F96CDBFDEBF22
:10131000DF91CF911F910F91FF90EF90DF90CF90D1
:10132000BF90AF909F908F907F906F905F904F9005
:1013300008956E0199E0C90ED11C87E0D6011D9277
:101340008A95E9F7F894E09147CDF09148CD60E0B7
:1013500084E00995E09149CDF0914ACD67E070E0D5
:10136000C601099578947984EA84DB849C848E8410
:10137000CF843AE3A32E39E3B32E41E1642EF50185
:10138000262D11922A95E9F74AE0B80184FA8827B8
:1013900080F990E00E943D25898180933A39882D1B
:1013A0008F704AE0B80190E00E943D2589818093CA
:1013B0003B395DE2852E80923C39892D90E09595F0
:1013C00087959595879595958795959587954AE005
:1013D000B801837099270E943D25898180933D390A
:1013E000892D8F704AE0B80190E00E943D258981E7
:1013F00080933E3980923F398C2D82958F704AE0E0
:10140000B80190E00E943D258981809340398C2D60
:101410008F704AE0B80190E00E943D258981809359
:101420004139A50160E080E00E942D15D8011D9290
:10143000FA94E9F7F50111926A94E9F78D2D90E09D
:101440009595879595958795959587959595879584
:101450004AE0B801837099270E943D2589818093D5
:101460003A398D2D8F704AE0B80190E00E943D25F9
:10147000898180933B39EAE3FE2EF0923C398E2D30
:1014800090E09595879595958795959587959595F0
:1014900087954AE0B801877099270E943D25898188
:1014A00080933D398E2D8F704AE0B80190E00E9404
:1014B0003D25898180933E39F0923F39872D90E018
:1014C0009595879595958795959587959595879504
:1014D0004AE0B801877099270E943D258981809351
:1014E0004039872D8F704AE0B80190E00E943D2579
:1014F00089818093413977FCA8C187E0EBE5FCEC5A
:10150000A2E4B9E301900D928A95E1F74AE359E329
:1015100060E081E00E942D15F8CE0E9463186C01F6
:101520000E9478187C013C2D2D2DF8EECF16F3E0AB
:10153000DF060CF080C1832F922F89312CEF9207A8
:101540000CF46EC13E2D2F2D48EEE41643E0F40658
:101550000CF05CC1E32FF22FE931ACEFFA070CF489
:1015600052C1BAE0AB2EB12CB5010E9450249B01B0
:101570004C01CF01B5010E9450245B013C01D7FC16
:10158000ADC1F7FCA2C1A0E44A2EA9E35A2E8BE01C
:10159000F20111928A95E9F786E0EDE3FCECAAE30B
:1015A000B9E301900D928A95E1F72A3031050CF4E8
:1015B000A8C180E2D7FC8DE2809340394AE0B801AF
:1015C000C9010E943D2587E090E042E050E0B8016B
:1015D000865C964C0E941B258EE280934339F8E08E
:1015E000DF2ED801ED2D1D92EA95E9F74AE0B8010A
:1015F000C4010E943D2589818093443980E290E8AE
:10160000809345399093463986E4809347394AE37D
:1016100059E360E080E00E942D15D8011D92DA9414
:10162000E9F78BE0F20111928A95E9F786E0E4E4AC
:10163000FCECAAE3B9E301900D928A95E1F7FAE098
:10164000AF16B1040CF46EC180E2F7FC8DE280931A
:1016500040394AE0B801C5010E943D2587E090E08D
:1016600042E050E0B801865C964C0E941B258EE259
:101670008093433988E0D8011D928A95E9F74AE0C2
:10168000B801C3010E943D2589818093443980E2DD
:1016900090E8809345399093463986E480934739A2
:1016A0004AE359E360E081E00E942D152ECE0E94AE
:1016B0008C18AC0186B18074782E4031B7E25B079C
:1016C00008F0CDC09A013695279536952795ABE75A
:1016D000B4E10E94A5246C01D694C79424E62C9D05
:1016E000C0012D9D900D11247A01E81AF90AE0E459
:1016F000F9E38BE0DF011D928A95E9F786E0EBE4E0
:10170000FCECAAE3B9E301900D928A95E1F74AE077
:10171000B801C6010E943D25BAE0CB16D10408F0FD
:101720001EC138E0432E512C48E0C42ED12C57E086
:10173000852E912C41E050E0AA24A394B12CB8014D
:1017400080E499E30E941B25F401E65CF64C8EE2EE
:10175000808388E0F80111928A95E9F7C601865CDA
:10176000964C6C01C7018A30910508F0F0C080E307
:10177000F60180834AE0B801C7010E943D2575014A
:10178000F9E0EF0EF11C25012BE0420E511CC501C2
:101790008E5B964C6C0141E050E0B801C6010E949E
:1017A0001B25F701E65CF64C80E296E58083918389
:1017B0004EE050E04419550960E270E0C201865CD9
:1017C000964C0E9436254AE359E360E080E00E948F
:1017D0002D15E4E4F9E387E0DF011D928A95E9F72E
:1017E00085E0EBE7FCECAAE3B9E301900D928A9562
:1017F000E1F7E1E3FCEC711002C0E7E3FCEC85E00B
:10180000AFE3B9E37FCEE9E1FCEFABCE37EE23E007
:10181000E32FF22FE931ACEFFA070CF0A2CEF3CFB1
:1018200089E19CEF3E2D2F2D48EEE41643E0F406AF
:101830000CF490CEEBCF37EE23E0832F922F89313B
:101840002CEF92070CF07ECEEBCF88E0E2E5FCECCB
:10185000A2E4B9E301900D928A95E1F757CEE0E456
:10186000F9E38BE0DF011D928A95E9F786E0EBE46E
:10187000FCECAAE3B9E301900D928A95E1F74AE006
:10188000B80183E690E00E943D2589819A8180938A
:101890004039909341398EE280934239F801119298
:1018A000FA94E9F783E4C82E89E3D82E9DE0492E07
:1018B000512C2BE0E22EF12C83E690E04AE0B801B7
:1018C0000E943D2542E050E068CFAA24BB24A61A1E
:1018D000B70A66247724681A790A55CE319521957E
:1018E00031099194819491084CCE4DE050E04E190D
:1018F0005F0960E270E0C701865C964C0E94362565
:10190000F8CC80E280934039D7FC1FC080934139E6
:101910004AE0B801C9010E943D2588E090E041E01D
:1019200050E055CE80E280934039F7FC0CC08093A4
:1019300041394AE0B801C5010E943D2588E090E0A8
:1019400041E050E08FCE8DE2F2CF8DE2DFCF720129
:10195000A2E0EA0EF11CB4E04B0E511CAFCFB9E08F
:101960004B2E512C89E0C82ED12C98E0892E912C39
:1019700042E050E022E0A22EB12CE1CE8091393934
:10198000833018F48F5F809339390E94C5140E9408
:10199000200980E0089580913939882319F0815019
:1019A000809339390E94C5140E94200980E008956F
:1019B0000E94C514109239390C9420090C94200906
:1019C000CF93E0918CCBF0918DCB0995C82F81E816
:1019D0009CEC0E940F178C2F0E9496178BE09DECB9
:1019E000CF910C940F17813009F00895109271393E
:1019F0000C945705813009F00895109271390C94B8
:101A00000D0580E88093250480930504E7EEF3E05C
:101A10003197F1F700C00000809326040E947412F1
:101A200081E0809358390895813039F010F0823088
:101A300019F410924B3908950895109271398091DC
:101A40004B398111F8CF80915839811102C00E9421
:101A5000010D0C94A2058BE49DEC80937339909357
:101A600074390E94010D8DE89CEC0E94FE1460E028
:101A700081E00E9497148DE99CEC0C94FE140F9366
:101A80001F93CF93DF93CDB7DEB72997CDBFDEBFCE
:101A90008E010F5F1F4F87E0F80111928A95E9F7D9
:101AA000F894E09147CDF09148CD60E084E009954D
:101AB000E09149CDF0914ACD67E070E0C801099509
:101AC0007894498165E089E699E30E940E1B4A817A
:101AD00064E089E699E30E940E1B4B8163E089E68E
:101AE00099E30E940E1B4C8162E089E699E30E9413
:101AF0000E1B4E8161E089E699E30E940E1B4F8127
:101B000060E089E699E30E940E1B898187FF13C07C
:101B100094E098878F778987F894E09145CDF0918C
:101B200046CD41E062E070E0CE01089609957894D8
:101B300083E00E94401F2996CDBFDEBFDF91CF9189
:101B40001F910F9108958823E1F090E021E0209308
:101B500045043FEF40E752E0315040405040E1F74C
:101B600000C0000020934604EFEFF0E732E0E150C0
:101B7000F0403040E1F700C00000A8959F5F891356
:101B8000E6CF6623F1F0862F8150990BAC0190E0EF
:101B900080E021E020934504E7E8F3E13197F1F795
:101BA00000C00000209346044817590731F0EFE5C4
:101BB000FAEE3197F1F700C00000A895019686175C
:101BC00048F308958F929F92AF92BF92CF92DF9287
:101BD000EF92FF9284EA9CEC0E940F1769E679E38A
:101BE00081E699E30E940B1C6B017C0169E679E3B5
:101BF00089E599E30E940B1C4B015C0189E699E39E
:101C00000E9436178BE09DEC0E940F17F7FC05C071
:101C1000181419041A041B044CF4FF90EF90DF9081
:101C2000CF90BF90AF909F908F9008958091893909
:101C300090918A39092E000CAA0BBB0BA7019601C3
:101C4000281B390B4A0B5B0BCA01B901E091B6396D
:101C5000F0E0EE0FFF1FEF5FF1432081318150E094
:101C600040E00E948624672B682B692BB1F6809197
:101C7000853990918639A0918739B0918839C816F5
:101C8000D906EA06FB0648F20E948C18843F914070
:101C9000B8F0E091B739F0E0EE0FFF1FE159F243E1
:101CA000A080B180A114B104B9F480E0FF90EF905E
:101CB000DF90CF90BF90AF909F908F900C9494192D
:101CC00080EB9CECFF90EF90DF90CF90BF90AF90B7
:101CD0009F908F900C940F17E091B639F0E0EE0FC3
:101CE000FF1FEF5FF1438080918041E0841A9108EB
:101CF00089E699E30E94911BAA0CBB1C8A149B04E1
:101D000008F45401CB010E9410250E940B25B50157
:101D10006F5F7F4F0E943C24B0E0A0E0B694A79490
:101D20008A199B09A109B1094091893950918A39D1
:101D3000052E000C660B770BC41AD50AE60AF70AC3
:101D4000E091B639F0E0EE0FFF1FEF5FF143208125
:101D50003181C20ED31EE11CF11CC80ED91EEA1E31
:101D6000FB1EC0928539D0928639E0928739F09275
:101D700088398093893990938A3997CFCF93C82F28
:101D80000E9496178AE00E949617C434C9F070F03A
:101D9000C23529F0C43579F4CF910C941B2188ED1C
:101DA00091E084BF90934100CF910895C33419F41A
:101DB000CF910C94C8208DEB9CECCF910C940F1715
:101DC000CF910C943320CF93DF9300D000D0CDB7C8
:101DD000DEB70E942B030E942B0DE09141CDF091C4
:101DE00042CD099519821A8287E28B831C82E09189
:101DF00045CDF09146CD41E064E070E0CE01019622
:101E000009950E94BE040E94D91E81E699E3809341
:101E10008D3990938E3989E599E380938B3990932E
:101E20008C390E94511E89E699E38093E23A90939F
:101E3000E33A009190CB109191CB80EE9CE0F801B9
:101E4000099583EF9CE0809383399093843984E1F2
:101E50009DE080938139909382398AEF9CE0809352
:101E60007F39909380390E943F0D81EF9CEC0E9456
:101E70000F178DE09DEC0E940F178FE899E30E94E9
:101E80000F178BE09DEC0E940F1787E19DEC0E94DD
:101E90000F1786E999E30E940F178BE09DEC0E94D3
:101EA0000F1785E29DEC0E940F1780915C3890918E
:101EB0005D380E940F178BE09DEC0E940F1781E3A5
:101EC0009DEC0E940F1784EE9AE30E940F178BE09F
:101ED0009DEC0E940F176091400080E00E94751FEA
:101EE0008FE38093400060E084E00E94A30DC090E7
:101EF00082CBD09083CBE09080CBF09081CB80E8F8
:101F0000A82E9924939498EDB92E23E1822EA895BA
:101F10000E94D61880914D3981112EC080914C3984
:101F2000882341F010924C3980917139811180C021
:101F30000E94E20D0E94A11F80914E398111E7CFCE
:101F400080914F39823018F390E0805B964CFC0111
:101F5000319720812A30D9F6109271390297FC010D
:101F600080810E94BE0E10924F39A8950E94D6180B
:101F700080914D39882391F210924D390E945B195E
:101F80000E94DA04809171398F5F809371398431B6
:101F900028F25199C3CF3699C1CF1092713910925E
:101FA0005B380E94EF04A092250487EE93E001972E
:101FB000F1F700C00000A0920604109258399092E8
:101FC0004604F6010995A895B4BE80910001807F72
:101FD000809300018091500081608093500088952B
:101FE000809150008E7F80935000A895B4BE809160
:101FF00000018760809300018091010181FDFCCF89
:10200000F701099580EE9CE0F801099562E080E017
:102010000E94A30D0E943F0D80915B388330A1F098
:10202000843049F0823009F079CF8092713976CFCF
:102030000E943F0D7DCF64E081E00E945A1F0E9404
:10204000010D0E94A2056ACF63E081E00E945A1F41
:102050000E94010D0E94A20581E00E94C618909284
:102060004B395CCF1F920F920FB60F9211242F9312
:102070003F934F935F936F937F938F939F93AF9310
:10208000BF93EF93FF93809172398F5F8431C1F0DA
:10209000809372390E94B81981E080930B0AFF91F6
:1020A000EF91BF91AF919F918F917F916F915F91D0
:1020B0004F913F912F910F900FBE0F901F90189549
:1020C0001092723981E080934D39E4CF1F920F92C4
:1020D0000FB60F9211248F939F93EF93FF938091EC
:1020E0008A0080FF03C081E080938A0080910B0604
:1020F00080FF03C081E080930B061A9B06C080918D
:102100005B38882351F184E083B93E9B06C08091FF
:102110005B388823F1F080E487B95A9B09C081E0DD
:1021200080934C3980915B38882379F084E08BB9B7
:102130008091040887FD15C0FF91EF919F918F91C9
:102140000F900FBE0F901F90189582E080935B3820
:10215000EDCF84E080935B38DECF83E080935B3803
:10216000D2CF81E080934E3980914F399091000811
:10217000E82FF0E0E05BF64C90838F5F883029F029
:1021800080934F3910924E39D7CF10924F39FACFF2
:10219000E0E4F4E080818F7E80838081877F80838C
:1021A0000895809140048F7E80934004809148047C
:1021B00084FFFCCF0895E0E4F4E08081877F808392
:1021C0000895E0E4F4E0808180618083808188600C
:1021D00080830E94DB100C94D1108091480484FD10
:1021E0000AC0809140048F7E80934004809148040F
:1021F00084FFFCCF08958091400480618093400467
:10220000809144048F7E809344040895CF93DF939C
:10221000D82FC8E019C080914004886080934004A2
:1022200080914404877F809344040E94ED1082E0F3
:102230008A95F1F700C00E94ED10DD0F82E08A95CB
:10224000F1F700C0C15029F0D7FFE5CF0E94DB10A5
:10225000ECCF80914004877F809340040E94ED1072
:102260008091480483FF04C080E0DF91CF910895FE
:1022700082E08A95F1F700C00E94ED108091400441
:102280008860809340040E94DB1082E08A95F1F719
:1022900000C081E0DF91CF910895CF92DF92EF925D
:1022A000FF920F931F93CF93DF936C017B01042F59
:1022B0008091400488608093400480914404877F2B
:1022C0008093440482E08A95F1F700C08091400435
:1022D000806180934004809144048F7E8093440405
:1022E00082E08A95F1F700C082EA0E940611182F59
:1022F0008823A9F0E114F10469F0E601EC0CFD1C5F
:1023000003C0CE15DF0539F089910E940611182F00
:102310008111F7CF10E00E94D11001110AC0812F66
:10232000DF91CF911F910F91FF90EF90DF90CF90B1
:10233000089582E08A95F1F700C00E94DB10EFCF8C
:10234000CF93DF931F92CDB7DEB78983462F61E02D
:1023500070E0CE0101960E944D110F90DF91CF9158
:1023600008959F92AF92BF92CF92DF92EF92FF9229
:102370000F931F93CF93DF936C017B015A018091E0
:102380004004877F80934004C7E0D0E0912C01E0B7
:1023900010E00E94ED108091480483FF07C0C8013F
:1023A0000C2E01C0880F0A94EAF7982A82E08A95D9
:1023B000F1F700C00E94ED1022E02A95F1F700C06D
:1023C000219738F7F601EA0DFB1D908280914004B9
:1023D00088608093400421E0E21AF108AE14BF0443
:1023E000D8F00E94DB100E94ED1082E08A95F1F790
:1023F00000C00E94ED1022E02A95F1F700C081E0B4
:10240000DF91CF911F910F91FF90EF90DF90CF90D0
:10241000BF90AF909F900895809140048860809312
:10242000400480914404877F809344040E94ED100F
:1024300082E08A95F1F700C00E94ED100E94DB1047
:1024400022E02A95F1F700C0DACFCF92DF92EF9227
:10245000FF921F93CF93DF936C017B018091400427
:1024600088608093400480914404877F8093440473
:1024700082E08A95F1F700C08091400480618093EA
:102480004004809144048F7E8093440482E08A95C6
:10249000F1F700C083EA0E940611182F8823D9F0B3
:1024A000E114F10479F0D0E0C0E004C02196EC160C
:1024B000FD0649F0AE01B701C6010E94B111182F07
:1024C0008111F4CF10E00E94D11082E08A95F1F7DB
:1024D00000C00E94DB10812FDF91CF911F91FF90F0
:1024E000EF90DF90CF9008950F931F93CF93DF93DA
:1024F00000D0CDB7DEB7E0917339F0917439019017
:10250000F081E02D09952FE788E391E0215080408C
:102510009040E1F700C00000E0917339F091743908
:10252000309709F4E1C110E8198308E00A830480B8
:10253000F581E02D41E062E070E0CE010196099561
:10254000E0917339F0917439309709F4CDC1198352
:102550008AE28A830480F581E02D41E062E070E048
:10256000CE0101960995E0917339F0917439309755
:1025700009F4BAC1198389E78A830480F581E02DC3
:1025800041E062E070E0CE0101960995E091733977
:10259000F0917439309709F4A7C1198385ED8A83C6
:1025A0000480F581E02D41E062E070E0CE0101960B
:1025B0000995E0917339F0917439309709F494C119
:1025C000198380E78A830480F581E02D41E062E091
:1025D00070E0CE0101960995E0917339F09174395C
:1025E000309709F481C1198388E78A830480F581D3
:1025F000E02D41E062E070E0CE0101960995E091A6
:102600007339F0917439309709F46EC119830A83D4
:102610000480F581E02D41E062E070E0CE0101969A
:102620000995E0917339F0917439309709F45CC1E0
:10263000198386E08A830480F581E02D41E062E021
:1026400070E0CE0101960995E0917339F0917439EB
:10265000309709F449C1198382E78A830480F581A0
:10266000E02D41E062E070E0CE0101960995E09135
:102670007339F0917439309709F436C180E4898355
:102680001A820480F581E02D41E062E070E0CE0125
:1026900001960995E0917339F0917439309709F4F6
:1026A00023C119838AE28A830480F581E02D41E009
:1026B00062E070E0CE0101960995E0917339F091E6
:1026C0007439309709F410C1198389E78A8304802B
:1026D000F581E02D41E062E070E0CE0101960995C0
:1026E000E0917339F0917439309709F4FDC0198382
:1026F0008AED8A830480F581E02D41E062E070E09C
:10270000CE0101960995E0917339F09174393097B3
:1027100009F4EAC019831A820480F581E02D41E0B2
:1027200062E070E0CE0101960995E0917339F09175
:102730007439309709F4D8C019838CED8A830480EA
:10274000F581E02D41E062E070E0CE01019609954F
:10275000E0917339F0917439309709F4C5C0198349
:102760001A820480F581E02D41E062E070E0CE0144
:1027700001960995E0917339F0917439309709F415
:10278000B3C0198381E88A830480F581E02D41E09C
:1027900062E070E0CE0101960995E0917339F09105
:1027A0007439309709F4A0C019838FE78A830480B5
:1027B000F581E02D41E062E070E0CE0101960995DF
:1027C000E0917339F0917439309709F48DC0198311
:1027D00089ED8A830480F581E02D41E062E070E0BC
:1027E000CE0101960995E0917339F09174393097D3
:1027F00009F47AC0198381EF8A830480F581E02D82
:1028000041E062E070E0CE0101960995E0917339F4
:10281000F0917439309709F467C019838BED8A837E
:102820000480F581E02D41E062E070E0CE01019688
:102830000995E0917339F0917439309709F454C0D7
:10284000198380E38A830480F581E02D41E062E012
:1028500070E0CE0101960995E0917339F0917439D9
:10286000309709F441C0198388E78A830480F58191
:10287000E02D41E062E070E0CE0101960995E09123
:102880007339F0917439309779F1198388E28A832A
:102890000480F581E02D41E062E070E0CE01019618
:1028A0000995E0917339F09174393097E9F0198303
:1028B00081E08A830480F581E02D41E062E070E0F0
:1028C000CE0101960995E0917339F09174393097F2
:1028D00059F019831A830480F581E02D41E062E00C
:1028E00070E0CE01019609952FE788E391E0215031
:1028F00080409040E1F700C00000E0917339F09112
:102900007439309769F080E889838CE08A83048089
:10291000F581E02D41E062E070E0CE01019609957D
:102920000F900F90DF91CF911F910F910895CF934A
:10293000DF93CDB7DEB72697CDBFDEBF19821A82EF
:1029400020E430E02B833C83E82FF0E0EE0FFF1F04
:10295000EC0FFD1F8181680F6068E0917339F09181
:102960007439309761F080E88D836E830480F5813F
:10297000E02D41E062E070E0CE01059609952696D3
:10298000CDBFDEBFDF91CF910895CF93DF9300D00D
:10299000CDB7DEB7E0917339F0917439309769F0B3
:1029A00080E8898381E08A830480F581E02D41E01D
:1029B00062E070E0CE01019609950F900F90DF91D3
:1029C000CF910895CF93DF9300D0CDB7DEB7E091DC
:1029D0007339F0917439309761F080E889838A8384
:1029E0000480F581E02D41E062E070E0CE010196C7
:1029F00009950F900F90DF91CF910895FF920F935B
:102A00001F93CF93DF9300D0CDB7DEB7FC01908149
:102A10009923D9F08F010F5F1F4F80E4F82EE091CA
:102A20007339F0917439309759F0F9829A830480A0
:102A3000F581E02D41E062E070E0CE01019609955C
:102A4000F80191918F019111EACF0F900F90DF91D2
:102A5000CF911F910F91FF9008950F931F93CF93E4
:102A6000DF93CDB7DEB72697CDBFDEBF8A011982CF
:102A70001A8220E430E02B833C83E82FF0E0EE0F55
:102A8000FF1FEC0FFD1F8181680F6068E0917339B3
:102A9000F0917439309761F080E88D836E83048003
:102AA000F581E02D41E062E070E0CE0105960995E8
:102AB000C8010E94FE142696CDBFDEBFDF91CF91E4
:102AC0001F910F910895E0E0F4E080818F7E808374
:102AD00080818F7D80830895809100048F7E809314
:102AE00000048091080484FFFCCF0895E0E0F4E046
:102AF00080818F7D80830895E0E0F4E080818061B3
:102B000080838081806280830E9476150C946C158E
:102B10008091080484FD0AC0809100048F7E809318
:102B200000048091080484FFFCCF08958091000484
:102B3000806180930004809104048F7E809304045C
:102B40000895CF93DF93D82FC8E019C08091000477
:102B5000806280930004809104048F7D809304043C
:102B60000E94881582E08A95F1F700C00E948815BE
:102B7000DD0F82E08A95F1F700C0C15029F0D7FF40
:102B8000E5CF0E947615ECCF809100048F7D809375
:102B900000040E9488158091080485FF04C080E02D
:102BA000DF91CF91089582E08A95F1F700C00E94ED
:102BB0008815809100048062809300040E9476153D
:102BC00082E08A95F1F700C081E0DF91CF9108950E
:102BD000CF92DF92EF92FF920F931F93CF93DF93E9
:102BE0006C017B01042F80910004806280930004BB
:102BF000809104048F7D8093040482E08A95F1F72C
:102C000000C08091000480618093000480910404DE
:102C10008F7E8093040482E08A95F1F700C088E7F4
:102C20000E94A115182F8823A9F0E114F10469F07E
:102C3000E601EC0CFD1C03C0CE15DF0539F08991CF
:102C40000E94A115182F8111F7CF10E00E946C157A
:102C500001110AC0812FDF91CF911F910F91FF9039
:102C6000EF90DF90CF90089582E08A95F1F700C051
:102C70000E947615EFCFCF93DF931F92CDB7DEB7CB
:102C80008983462F61E070E0CE0101960E94E8152D
:102C90000F90DF91CF9108959F92AF92BF92CF9204
:102CA000DF92EF92FF920F931F93CF93DF936C010C
:102CB0007B015A01809100048F7D80930004C7E05E
:102CC000D0E0912C01E010E00E948815809108046A
:102CD00085FF07C0C8010C2E01C0880F0A94EAF7CF
:102CE000982A82E08A95F1F700C00E94881522E0B8
:102CF0002A95F1F700C0219738F7F601EA0DFB1D80
:102D000090828091000480628093000421E0E21AA6
:102D1000F108AE14BF04D8F00E9476150E94881501
:102D200082E08A95F1F700C00E94881522E02A957A
:102D3000F1F700C081E0DF91CF911F910F91FF90DB
:102D4000EF90DF90CF90BF90AF909F9008958091CB
:102D50000004806280930004809104048F7D80933E
:102D600004040E94881582E08A95F1F700C00E9451
:102D700088150E94761522E02A95F1F700C0DACF77
:102D8000CF92DF92EF92FF921F93CF93DF936C016C
:102D90007B01809100048062809300048091040490
:102DA0008F7D8093040482E08A95F1F700C08091C2
:102DB0000004806180930004809104048F7E8093DE
:102DC000040482E08A95F1F700C089E70E94A1150A
:102DD000182F8823D9F0E114F10479F0D0E0C0E095
:102DE00004C02196EC16FD0649F0AE01B701C601FC
:102DF0000E944C16182F8111F4CF10E00E946C1520
:102E000082E08A95F1F700C00E947615812FDF914C
:102E1000CF911F91FF90EF90DF90CF900895EF92A8
:102E2000FF920F931F93CF93DF938C01FC0180815E
:102E30008823A9F0C0919ECBD0919FCBE0909ACBF4
:102E4000F0909BCBFE0109958823E1F3F801819175
:102E50008F01F7010995F80180818111F3CFDF918E
:102E6000CF911F910F91FF90EF9008950F931F93B3
:102E7000CF93DF93CDB7DEB7A297CDBFDEBF8E0174
:102E80000F5F1F4F22E2F80111922A95E9F720E027
:102E9000A8016CE07DEC0E94241CC8010E940F1761
:102EA00000919ECB10919FCBF80109958823E1F307
:102EB000E0919ACBF0919BCB80E20995CE014296AE
:102EC0000E940F17A296CDBFDEBFDF91CF911F9159
:102ED0000F910895CF92DF92EF92FF920F931F937D
:102EE000CF93DF9361157105C1F0C0919ECBD09156
:102EF0009FCBC0909ACBD0909BCB8C017C01E60EEF
:102F0000F71EFE0109958823E1F3F80181918F01F5
:102F1000F6010995E016F106A1F7DF91CF911F9117
:102F20000F91FF90EF90DF90CF9008951F93CF9374
:102F3000DF93182FC0919ECBD0919FCBFE010995B6
:102F40008823E1F3E0919ACBF0919BCB812FDF9125
:102F5000CF911F910994CF92DF92EF92FF92E0EA16
:102F6000F0E080818F788083808180618083E0E0E1
:102F7000F6E082818F7C8283828182838AE08583EE
:102F800081E28A95F1F700008EE10E94A3008EE1B4
:102F90000E94A300E0E0F1E131A120A19295829589
:102FA0008F7089279F708927DC01A31BB10937FD2A
:102FB000B395C22ED12CF12CE12CA7019601220F42
:102FC000331F441F551F220F331F441F551F2C0D45
:102FD0003D1D4E1D5F1D220F331F441F551F0E94B4
:102FE000B424DC01CB0180589F4FAF4FBF4F892FD6
:102FF0009A2FAB2FBB278C5A9A40FF90EF90DF900F
:10300000CF900895CF93C0E4C0930504E0E0F6E0CC
:1030100082818F7C82838281806182838AE0858342
:1030200089EF90E00197F1F700C0000089E00E946D
:10303000A30089E00E94A300AC01529542954F7015
:1030400045275F704527C09306042FEF33E0241B0C
:10305000350BA0E1B7E20E94A5249A0150E040E0C0
:103060000E946424CA01B9010E94BC2220E030E41D
:103070004CE156E40E9414220E94522320E030E4E6
:1030800043E555E40E9414222FE03FEC4BE55BE35F
:103090000E94A8219B01AC0160E070E080E89FE302
:1030A0000E94142223E333E948E853E40E94A72155
:1030B00020E030E040E251E40E949A230E94862200
:1030C000CB01CF9108950E94AB179C01220F331FB3
:1030D000220F331F220F331F820F931F880F991F58
:1030E0006AE070E00E945024CB01805C9E4F0895FE
:1030F0000E940218BC01990F880B990B0E94BE22F6
:1031000026E636E646EE5FE30E949A230E94862278
:10311000CB01805C9E4F0895E0EAF0E080818F78DB
:103120008083808180628083E0E0F6E082818F7C12
:1031300082838281828380E2858381E28A95F1F7AE
:10314000000088E00E94A30088E00E94A3009C0188
:10315000329522952F7023273F702327A0EEBEE2E1
:103160000E94A5242DE533E040E050E00E94642455
:10317000CA01B9016B5F7F4F8F4F9F4F2AE030E04C
:1031800040E050E00E946424C901089590917C3988
:10319000811106C09D7F90937C39109279390895F2
:1031A000926090937C39109279390895CF93139B54
:1031B00056C094E0129B51C082E0C2B1C695C17066
:1031C000C92BC82B80917C398C1709F457C080918A
:1031D0007B398C1346C080910B0A81FF3CC082E092
:1031E00080930B0AE0918339F0918439309769F02C
:1031F00080917C3984709C2F947009F453C08111A4
:1032000004C01092783981E00995E0918139F091FC
:103210008239309759F080917C398270C1FF3AC071
:10322000811104C01092793981E00995E0917F39CC
:10323000F0918039309759F080917C398170C0FFCE
:1032400021C0811104C010927A3981E009958091E2
:103250007B3980937C39CF91089580E0AECF90E0A8
:10326000A9CF86E20E94D90382E080930B0AC09323
:103270007B3980910B0A81FDB2CFEDCF80937B39F2
:10328000CF910895882319F380917A398111DFCF86
:103290000995DDCF882351F2809179398111C6CF0C
:1032A0000995C4CF882309F4B0CF80917839811172
:1032B000ACCF0995AACF80917C3982FF11C0909143
:1032C00078399F5F90937839E0918339F091843910
:1032D000309731F0923021F482E0099580917C3969
:1032E00081FF11C0909179399F5F90937939E09176
:1032F0008139F0918239309731F0923021F482E0B7
:10330000099580917C3980FF0EC080917A398F5F5A
:1033100080937A39E0917F39F0918039309719F0B4
:10332000823009F409940895809375398AE59DECFB
:103330000E940F176091753982E00E94751FE0911D
:10334000B539F0E0EE0FFF1FEB5EF14320813181D4
:1033500036952795ABE7B4E10E94A524969587950D
:10336000809376399093773982E08093450408956D
:103370008091763990917739892B79F080917639DF
:10338000909177390197809376399093773980912E
:10339000763990917739892B09F0089560917539C4
:1033A00082E00E94751F82E080934604E0917D399F
:1033B000F0917E39309709F0099585E59DEC0C94E4
:1033C0000F17FC019081923061F160F0943009F1A7
:1033D000E8F1953021F582818B3309F44AC08F5F83
:1033E00082830895992361F19130D1F486818C30E4
:1033F00009F441C08F5F86832781A82FB0E0AE59C2
:10340000B2439C918230C9F18581981750F795831A
:10341000089583818B3359F18F5F838308950895D5
:103420000895858196813781A92FB0E0AE59B243C6
:103430002C919230C1F0821778F081E08583089555
:103440008781833671F08F5F878308958481873108
:1034500031F08F5F848308958F5F85830895148290
:10346000089517820895337031F72DE1E4CF138268
:1034700008951282089596830895237029F69DE198
:10348000C3CFFC019081923089F158F0943001F162
:1034900098F1953019F582818823E9F18150828372
:1034A00008959923E9F09130D1F48681813009F4AF
:1034B00042C0815086832781A82FB0E0AE59B24325
:1034C0009C918230D9F18581981750F795830895A2
:1034D000838181111AC08BE3838308950895089531
:1034E000878181110FC083E68783089585818130AC
:1034F000A9F08150858308958481811109C087E1F5
:10350000848308958150878308958150838308952B
:103510008150848308958BE3828308958681278177
:10352000A82FB0E0AE59B2439C91823079F6237057
:1035300069F69DE1CBCF8CE086830895237019F660
:103540009DE1C1CF623009F466C048F0643009F1F2
:1035500008F44BC0653099F5FC0132811CC066232C
:1035600081F1613061F5FC0136812DEC329F212D16
:103570001124269526952695F0E12F9FC001112450
:103580008071922F990F990F290F220F321B832BD5
:103590000895FC0133812DEC329F212D11242695B5
:1035A00026952695F0E12F9FC00111248077922F58
:1035B000990F990F290F220F321B832B089580E05A
:1035C0000895FC0137819DEC399F912D112496952A
:1035D00096959695892F8295807F292F220F220F0D
:1035E000920F990F391B832B0895FC0134812DEC28
:1035F000329F212D1124269526952695F0E12F9FA7
:10360000C00111248073922F990F990F290F220F57
:10361000321B832B0895FC013581E9CF623009F418
:1036200047C0E0F0643061F108F458C06530F1F54E
:10363000242F30E035952795359527953595279595
:1036400035952795322F3770232F220F220F230F06
:10365000220F4F70420FFC0142830895662309F444
:1036600053C0613021F544FB222720F9322F220F6D
:10367000220F230F220F4F70420FFC014683089543
:10368000242F30E035952795359527953595279545
:1036900035952795322F3770232F220F220F230FB6
:1036A000220F4F70420FFC0143830895089508953F
:1036B000242F30E035952795359527953595279515
:1036C00035952795322F3370232F220F220F230F8A
:1036D000220F4F70420FFC0145830895242F30E0E4
:1036E00035952795359527953595279535952795C2
:1036F000322F3370232F220F220F230F220F4F70F0
:10370000420FFC0144830895342F32953F70232FDC
:10371000220F220F230F220F4F70420FFC0147830D
:1037200008958F929F92AF92BF92CF92DF92EF92C5
:10373000FF920F931F93CF93FC012781422F437079
:10374000C22FC695C69581E0411101C080E0C80F27
:103750003681C12CD12C76013230D8F0A4E6BDECF4
:1037600081E0C12CD12C76019FE1C90ED11CE11C56
:10377000F11C8F5F831769F09D918230B1F7411181
:10378000F4CF9DE1C90ED11CE11CF11C8F5F8313A6
:10379000F3CF65816150770B4B01770FAA08BB0807
:1037A00030E0ADE6B1E00E94A524A5019401260F0A
:1037B000371F481F591F2C0F311D411D511D2C0D46
:1037C0003D1D4E1D5F1DA0EAB5E00E94B424AB0173
:1037D000BC0124810CE3209FC0011124092E000CA0
:1037E000AA0BBB0B2381820F911DA11DB11D8A0164
:1037F0009B01080F191F2A1F3B1FC901B801CF9158
:103800001F910F91FF90EF90DF90CF90BF90AF90FE
:103810009F908F900895CF92DF92EF92FF92CF9377
:10382000DF93EB010E94911B6B017C01CE010E9492
:10383000911B6C197D098E099F09DF91CF91FF9033
:10384000EF90DF90CF9008955F926F927F928F926A
:103850009F92AF92BF92CF92DF92EF92FF920F931F
:103860001F93CF93DF9300D000D0CDB7DEB77C019C
:103870006B018A01A22E19821A821B821C82FB0113
:1038800001900020E9F73197AF01461B570BC801A3
:103890000E941B25F60101900020E9F73197EC19F1
:1038A000FD09BE2EAA2029F0D7018C91813009F4A0
:1038B000B7C1D70116968C9192E0892E912C22E007
:1038C000722E8A3078F4D801AE0FB11D80E38C934C
:1038D000BB24B394BE0EF701868188248394912C77
:1038E000772473944AE0BE016F5F7F4F90E00E949F
:1038F0003D25A401BE016F5F7F4FC8018B0D911D57
:103900000E941B259B2D970DAA2029F0D7018C9191
:10391000823009F48CC18DE2F801E90FF11D80833A
:10392000BB24B394B90EF701858138016B0C711C6F
:103930008A3008F053C180E3D3018C93A2E0BA2E01
:10394000B90E858138016B0C711C88248394912CED
:10395000552453944AE0BE016F5F7F4F90E00E9470
:103960003D25A401BE016F5F7F4FC3010E941B254F
:10397000B50CAA2029F0F7018081882309F43AC107
:103980008DE2F801EB0DF11D8083552453945B0CFF
:10399000D70117968C9117973801650C711C8A30E6
:1039A00008F016C180E3F301808362E0562E5B0CC1
:1039B00017968C913801650C711C88248394912C86
:1039C000BB24B3944AE0BE016F5F7F4F90E00E943A
:1039D0003D25A401BE016F5F7F4FC3010E941B25DF
:1039E000852D8B0D803108F407C1D80150961C92AB
:1039F000F60101900020E9F73197EC19FD09CE2E70
:103A0000D70111968C91811103C033E0C32ECE0EE5
:103A10004C2D50E060E270E0C80141960E943625CE
:103A200021E1D22EDC0C8D2C912CA110C5C0800E72
:103A3000911ED70114968C9114978A3008F0B6C065
:103A400080E3F401808382E1D82EDC0C14968C9103
:103A500048018D0C911C66246394712CCC24C39472
:103A60004AE0BE016F5F7F4F90E00E943D25A301B9
:103A7000BE016F5F7F4FC4010E941B259D2D9C0DD1
:103A8000AA2029F0D7018C91843009F4C7C08AE3B9
:103A9000F801E90FF11D8083DD24D394D90EF701DD
:103AA000838148018D0C911C52E0652E712C62E0DF
:103AB000C62E8A3078F480E3D4018C9372E0D72E3E
:103AC000D90E838148018D0C911C66246394712C5E
:103AD000CC24C3944AE0BE016F5F7F4F90E00E9408
:103AE0003D25A301BE016F5F7F4FC4010E941B25CE
:103AF0008D2D8C0DF70191819923A9F1A11074C02E
:103B00009AE3F801E80FF11D9083DD24D394D80ED9
:103B1000D70112969C9112975801AD0CB11C9A30A6
:103B200008F076C090E3F501908332E0D32ED80EF2
:103B300012969C915801AD0CB11C88248394912C51
:103B4000FF24F3944AE0BE016F5F7F4F892F90E01E
:103B50000E943D25A401BE016F5F7F4FC5010E94F9
:103B60001B258D2D8F0D813258F490E041E250E0FD
:103B7000481B590B60E270E0800F911F0E943625B0
:103B8000D80191961C922496CDBFDEBFDF91CF91D4
:103B90001F910F91FF90EF90DF90CF90BF90AF906B
:103BA0009F908F907F906F905F900895F2E06F2EBE
:103BB000712CA2E0CA2E54CFF7018081800E911E95
:103BC000833009F036CFF40131978FED808331CF08
:103BD00042E0842E912C52E0B52EF4CEE2E08E2EFF
:103BE000912CF2E05F2EB6CE9081953009F088CF0F
:103BF0009FED87CF8FEDC5CE90E040E150E0481BB0
:103C0000590B60E270E0800F911F0E943625EDCEC7
:103C100082E0882E912C22E0F22E94CF8FED38CFC7
:103C2000D801AE0FB11D11978FED8C9342CE8FED61
:103C300073CEE0918D39F0918E39309779F0809183
:103C4000AB3987838091AC3986838091AD39858388
:103C50008091AE3984838091AF398383E0918B3931
:103C6000F0918C39309779F08091B03987838091C9
:103C7000B13986838091B23985838091B339848349
:103C80008091B439838308950E94191EF89441E10C
:103C900050E060E070E08BEA99E30E94762578942A
:103CA00008950F931F93CF93DF9341E150E060E0BD
:103CB00070E08BEA99E30E94722506E919E3C3E0FC
:103CC000D1E1899140E1B80190E00E943D250E5F6D
:103CD0001F4FCD3081E1D807A1F78091001140E15D
:103CE0006FE879E390E00E943D258091011140E169
:103CF00061E979E390E00E943D258091021140E165
:103D000063E979E390E00E943D25DF91CF911F9117
:103D10000F910C94191E0F931F93CF93DF93C091B3
:103D2000DE39D091DF3920E031E02C1B3D0B261726
:103D3000370730F480E0DF91CF911F910F91089504
:103D40008B01FC018091B8399091B9399C012F5FAA
:103D50003F4F2093B8393093B93981839283A09132
:103D6000E23AB091E33A17968C91179783831696AF
:103D70008C911697848315968C911597858314964C
:103D80008C911497868313968C918783AB01BF0126
:103D9000CE018E51964C0E941B25C00FD11FC0939F
:103DA000DE39D093DF3981E0DF91CF911F910F9100
:103DB0000895AF92BF92CF92DF92EF92FF920F934E
:103DC0001F93CF93DF93CDB7DEB76297CDBFDEBF32
:103DD000CE0101966C0180E1F60111928A95E9F716
:103DE00088E090E0898B9A8B5E01F1E1AF0EB11C07
:103DF000E09188CBF09189CB00E110E0960142E0A0
:103E000050E0B50188E590E00995E0908ECBF09008
:103E10008FCB009192CB109193CB02C0F801099502
:103E2000F70109958111FACF84EEE82E8AE3F82E86
:103E3000F60111916F01812F82958F7040E1B701DA
:103E400090E00E943D25B7016F5F7F4F1F7040E1FA
:103E5000812F90E00E943D25F2E0EF0EF11CCA1484
:103E6000DB0431F76296CDBFDEBFDF91CF911F91AA
:103E70000F91FF90EF90DF90CF90BF90AF9008959B
:103E8000CF93DF93CDB7DEB72897CDBFDEBFFE015E
:103E9000319698E0DF011D929A95E9F7898368E0F1
:103EA00070E0CF010E948B1E2896CDBFDEBFDF9150
:103EB000CF910895CF93DF93CDB7DEB72997CDBFCC
:103EC000DEBFFE01319699E0DF011D929A95E9F778
:103ED0008983698769E070E0CF010E948B1E299673
:103EE000CDBFDEBFDF91CF9108950F931F93CF9386
:103EF000DF93CDB7DEB72F97CDBFDEBF8E010F5F4B
:103F00001F4F9FE0F80111929A95E9F7898369871D
:103F10000E94AB178A879B870E9402188C879D8717
:103F20000E948C188E879F876FE070E0C8010E9406
:103F30008B1E2F96CDBFDEBFDF91CF911F910F91CA
:103F400008956F927F928F929F92AF92BF92CF927D
:103F5000DF92EF92FF920F931F93CF93DF93E09046
:103F6000DE39F090DF39E114F10409F466C0A09065
:103F7000BA39B090BB39C7018A0D9B1D8130904181
:103F800008F06AC0F894609084CB709085CB009163
:103F90008ECB10918FCB80E2882E912CC09092CB4B
:103FA000D09093CBC5018F719927E401C81BD90B21
:103FB000EC16FD0608F4E7018B2D8F708093E03935
:103FC000A092E139AE014E5F5F4F60EE79E380E58C
:103FD00090E0F301099502C0F6010995F8010995F1
:103FE0008111FACF87E893E10197F1F700C0000053
:103FF000AC0EBD1EEC1AFD0ABE016E51764CA70137
:1040000082EE99E30E942425A895E114F10451F66B
:1040100078948091BA399091BB392091DE393091F2
:10402000DF39820F931F8093BA399093BB390E9476
:10403000441E1092DE391092DF39DF91CF911F912B
:104040000F91FF90EF90DF90CF90BF90AF909F9037
:104050008F907F906F9008951092BA391092BB396B
:10406000B12CA12C8FCF4F925F926F927F928F9243
:104070009F92AF92BF92CF92DF92EF92FF920F93F7
:104080001F93CF93DF93F89485E29EEC0E940F1765
:1040900080915C3890915D380E940F178AE00E94F1
:1040A0009617A090BA39B090BB39350176946794D1
:1040B000729462942FE06222672472226724C50101
:1040C0008F719927892B09F45EC08FEF681A780ADF
:1040D000660C771C6294729490EF792276246922A0
:1040E0007624D12CC12C409088CB509089CBC091A4
:1040F0008ECBD0918FCBE09092CBF09093CB8D2D47
:104100008F708093BC39C092BD394501E1E2AE1693
:10411000B10418F080E2882E912C84012EEB39E353
:1041200042E050E06CEB79E380E590E0F201099524
:1041300002C0F7010995FE0109958111FACFA8186F
:10414000B908B4018EEB99E30E946A17A895F0E2D2
:10415000CF0ED11C6C147D0491F68FE29EEC0E9470
:104160000F177894DF91CF911F910F91FF90EF90EF
:10417000DF90CF90BF90AF909F908F907F906F9087
:104180005F904F9008956114710409F0A1CFE5CFBD
:10419000CF92DF92EF92FF920F931F93CF93DF9313
:1041A00040E250E06FEF70E08EEB99E30E9436251D
:1041B000F894F12CE12CC09084CBD09085CBC091A9
:1041C0008ECBD0918FCB009192CB109193CBF0926C
:1041D000BC39E092BD3942E250E06CEB79E380E516
:1041E00090E0F601099502C0F8010995FE010995D4
:1041F0008111FACF87E893E10197F1F700C0000041
:10420000A89590E2E90EF11CE114E0E1FE06F9F652
:1042100078941092BA391092BB390E94441E8EE3F2
:104220009EECDF91CF911F910F91FF90EF90DF9067
:10423000CF900C940F17AF92BF92CF92DF92EF9274
:10424000FF920F931F93CF93DF93F89410E000E059
:10425000A09084CBB09085CBE0908ECBF0908FCBAC
:10426000CEEDD9E3C09092CBD09093CB902FEEEBD4
:10427000F9E3802F81938F5FCE17DF07D9F7109373
:10428000BC399093BD3942E250E06CEB79E380E5B4
:1042900090E0F501099502C0F6010995F70109952D
:1042A0008111FACF87E893E10197F1F700C0000090
:1042B000A895005E1F4F011590E11907B9F68BE430
:1042C0009EEC0E940F17D12CC12CA09088CBB090EF
:1042D00089CBC09192CBD09193CBD092BC39C09274
:1042E000BD3900E210E02EEB39E342E050E06CEB28
:1042F00079E380E590E0F501099502C0FE0109959A
:10430000F70109958111FACF60E270E08EEB99E335
:104310000E946A17A895F0E2CF0ED11CC11480E16B
:10432000D806D9F685E59EEC0E940F177894109276
:10433000BA391092BB39DF91CF911F910F91FF9045
:10434000EF90DF90CF90BF90AF900C94441E5058E8
:10435000BB27AA270E94BF210C9410230E9402238E
:1043600038F00E94092320F039F49F3F19F426F415
:104370000C94FF220EF4E095E7FB0C94F922E92F50
:104380000E94212358F3BA17620773078407950721
:1043900020F079F4A6F50C9443230EF4E0950B2E4F
:1043A000BA2FA02D0B01B90190010C01CA01A00187
:1043B0001124FF27591B99F0593F50F4503E68F1E2
:1043C0001A16F040A22F232F342F4427585FF3CF23
:1043D000469537952795A795F0405395C9F77EF4F4
:1043E0001F16BA0B620B730B840BBAF09150A1F03D
:1043F000FF0FBB1F661F771F881FC2F70EC0BA0FC3
:10440000621F731F841F48F4879577956795B7954A
:10441000F7959E3F08F0B0CF9395880F08F0992745
:10442000EE0F9795879508950E9428220C941023EB
:104430000E94092358F00E94022340F029F45F3FB4
:1044400029F00C94F92251110C9444230C94FF226E
:104450000E94212368F39923B1F3552391F3951B0F
:10446000550BBB27AA2762177307840738F09F5F95
:104470005F4F220F331F441FAA1FA9F335D00E2E02
:104480003AF0E0E832D091505040E695001CCAF76F
:104490002BD0FE2F29D0660F771F881FBB1F261732
:1044A00037074807AB07B0E809F0BB0B802DBF0109
:1044B000FF2793585F4F3AF09E3F510578F00C94D8
:1044C000F9220C9444235F3FE4F3983ED4F386959D
:1044D00077956795B795F7959F5FC9F7880F911DF9
:1044E0009695879597F90895E1E0660F771F881FE5
:1044F000BB1F621773078407BA0720F0621B730B98
:10450000840BBA0BEE1F88F7E09508950E948D2268
:104510006894B1110C94442308950E94292388F0D3
:104520009F5798F0B92F9927B751B0F0E1F0660F77
:10453000771F881F991F1AF0BA95C9F714C0B130B8
:1045400091F00E944323B1E008950C944323672F18
:10455000782F8827B85F39F0B93FCCF386957795E7
:104560006795B395D9F73EF49095809570956195D0
:104570007F4F8F4F9F4F0895E89409C097FB3EF4FB
:1045800090958095709561957F4F8F4F9F4F9923A0
:10459000A9F0F92F96E9BB279395F695879577951E
:1045A0006795B795F111F8CFFAF4BB0F11F460FFDE
:1045B0001BC06F5F7F4F8F4F9F4F16C0882311F036
:1045C00096E911C0772321F09EE8872F762F05C04A
:1045D000662371F096E8862F70E060E02AF09A95E5
:1045E000660F771F881FDAF7880F9695879597F9DA
:1045F000089597F99F6780E870E060E008959FEF65
:1046000080EC089500240A94161617061806090669
:10461000089500240A941216130614060506089538
:10462000092E0394000C11F4882352F0BB0F40F4C0
:10463000BF2B11F460FF04C06F5F7F4F8F4F9F4F00
:10464000089557FD9058440F551F59F05F3F71F082
:104650004795880F97FB991F61F09F3F79F08795E9
:104660000895121613061406551FF2CF4695F1DF72
:1046700008C0161617061806991FF1CF8695710502
:10468000610508940895E894BB2766277727CB0136
:1046900097F9089516F00C9407240C94FF2268945F
:1046A0000C94F9220E942923A8F39923C1F3AEF3B5
:1046B000DF93CF931F930F93FF92C92FDD2788239A
:1046C0002AF02197660F771F881FDAF720E030E085
:1046D00040E85FEB9FE3883920F0803E38F0219678
:1046E0008F770E94A821ECE7F0E004C00E94A82187
:1046F000E9EAF0E00E9415248B01BE01EC01FB2EDB
:104700006F5771097595771F880B990B0E94BE2210
:1047100028E132E741E35FE30E94AD23AF2D98012A
:10472000AE01FF900F911F91CF91DF910E94BF21A9
:104730000C9410230E94AD230C9410230E9402239A
:1047400038F00E94092320F0952311F00C94F922EF
:104750000C94FF2211240C9444230E94212370F313
:10476000959FC1F3950F50E0551F629FF001729F16
:10477000BB27F00DB11D639FAA27F00DB11DAA1F25
:10478000649F6627B00DA11D661F829F2227B00D72
:10479000A11D621F739FB00DA11D621F839FA00DFD
:1047A000611D221F749F3327A00D611D231F849F4D
:1047B000600D211D822F762F6A2F11249F575040A4
:1047C0009AF0F1F088234AF0EE0FFF1FBB1F661F1F
:1047D000771F881F91505040A9F79E3F510580F0E8
:1047E0000C94F9220C9444235F3FE4F3983ED4F3F5
:1047F000869577956795B795F795E7959F5FC1F78C
:10480000FE2B880F911D9695879597F908959F3FE8
:1048100031F0915020F4879577956795B795880F7B
:10482000911D9695879597F90895DF93CF931F93E0
:104830000F93FF92EF92DF927B018C01689406C088
:10484000DA2EEF010E94AD23FE01E894A591259197
:10485000359145915591A6F3EF010E94BF21FE01CC
:104860009701A801DA9469F7DF90EF90FF900F911C
:104870001F91CF91DF910895AA1BBB1B51E107C087
:10488000AA1FBB1FA617B70710F0A61BB70B881FE0
:10489000991F5A95A9F780959095BC01CD0108956F
:1048A00097FB072E16F4009407D077FD09D00E94DD
:1048B0003C2407FC05D03EF4909581959F4F0895C8
:1048C000709561957F4F0895A1E21A2EAA1BBB1B1C
:1048D000FD010DC0AA1FBB1FEE1FFF1FA217B307CC
:1048E000E407F50720F0A21BB30BE40BF50B661FE2
:1048F000771F881F991F1A9469F7609570958095A6
:1049000090959B01AC01BD01CF010895052E97FB49
:104910001EF400940E949D2457FD07D00E94642439
:1049200007FC03D04EF40C949D245095409530958F
:1049300021953F4F4F4F5F4F08959095809570950B
:1049400061957F4F8F4F9F4F0895A29FB001B39FF6
:10495000C001A39F700D811D1124911DB29F700D88
:10496000811D1124911D08950E94A524A59F900DDD
:10497000B49F900DA49F800D911D112408958F92D6
:104980009F92AF92BF92CF92DF92EF92FF92CF931E
:10499000DF93EC01688179818A819B8161157105C2
:1049A0008105910521F464E279ED8BE597E02DE135
:1049B00033EF41E050E00E94862449015A019B01F7
:1049C000AC01A7EAB1E40E94B4246B017C01ACEE17
:1049D000B4EFA50194010E94B025DC01CB018C0D40
:1049E0009D1DAE1DBF1DB7FF03C00197A109B048B3
:1049F00088839983AA83BB839F77DF91CF91FF90B0
:104A0000EF90DF90CF90BF90AF909F908F900895E0
:104A10000E94BF24089580E098E30E94BF24089577
:104A2000B0E0A0E08093003890930138A093023862
:104A3000B09303380895FB01DC0102C001900D9290
:104A400041505040D8F708956817790768F4FB0182
:104A5000DC01E40FF51FA40FB51F02C002900E92F7
:104A600041505040D8F708950C941B25DC0101C03B
:104A70006D9341505040E0F70895BB274A3031F420
:104A8000992322F4BDE2909581959F4F0C9449257E
:104A9000BB27FB015527AA27880F991FAA1FA41718
:104AA00010F0A41B83955051B9F7A05DAA3308F00C
:104AB000A95DA193009779F7B111B1931192CB0140
:104AC0000C946225DC01FC01672F71917723E1F7DB
:104AD000329704C07C916D9370836291AE17BF07CB
:104AE000C8F3089560507C4E0C941B25DC01A40F84
:104AF000B51F4150504048F0CB01840F951F2E91B7
:104B00000E94872541505040D0F70895262F0E94DB
:104B1000A9250080021619F00E949225019701979D
:104B20000895262FAF93BF93E0E0F0E1328131FD8D
:104B3000FDCFDC01A050BC4E2C933DE934BF23E0F7
:104B400020830196BF91AF91089503D0808199276A
:104B50000895FC01E050FC4E0895B7FF0C94B42476
:0E4B60000E94B424821B930B0895F894FFCF9B
:104B6E00500159016301E1029B02A1016C017E011A
:104B7E00A301B400CB00B2011F02E4010000DD006E
:104B8E00E200EB005202DC0303046B046E0420040B
:104B9E0026042C040F04150490041B0400000000CE
:104BAE00000000000000320400000000000072044B
:104BBE007904800400003C3C20202020202020206E
:104BCE00202020203E3E004F4E20004F46460050F3
:104BDE00554D503A2000544553542020202020207B
:104BEE00544F47474C4500465245513A2000564FC8
:104BFE004C3A20200050554D502056415249414EBE
:104C0E0043453A20200053544152543A2000535405
:104C1E004F503A202000434C4F434B3A20000201A4
:104C2E0005050620434F4E4E002044495343004392
:104C3E00485020543A0050434220543A0042617486
:104C4E00743A2000204F533A2053545000204F53B3
:104C5E003A204F4B004C4F47205553453A20004CBD
:104C6E004F47204341503A20343039360055534295
:104C7E003A2000493243204572726F722120005350
:104C8E0063656E742044697370656E736572007629
:104C9E00342E322E310050554D5020434845434B53
:104CAE000A004C4F5720564F4C544147450A004D71
:104CBE00454E550A443A204C4F472044554D500A14
:104CCE00543A204C4F4720544553540A433A204CF3
:104CDE004F4720434C4541520A523A2052455345C4
:104CEE00540A0057505A205363656E7420446973FA
:104CFE0070656E7365722076342E322E310A004343
:104D0E006869702049443A200043686970205365F1
:104D1E007269616C3A200044657669636520494486
:104D2E003A2000454550524F4D2053657269616CD3
:104D3E003A2000E110C8104D11A01125127C156308
:104D4E0015E8153B16C016444F4E452050554D5094
:104D5E00494E470A001F1C1F1E1F1E1F1F1E1F1E0F
:104D6E001F00001E003C007800F000E001D002336E
:104D7E0030204D494E003120484F555200342048C6
:104D8E004F555253003820484F5552530031322060
:104D9E00484F555253003620484F5552530031203C
:104DAE004441590032204441595300332044415963
:104DBE005300372044415953003134204441595354
:104DCE00003231204441595300302E35206D4C00B5
:104DDE0031206D4C0033206D4C00332E35206D4C40
:104DEE00003130206D4C003230206D4C00333020BD
:104DFE006D4C0078006801D002A005400BE01080D9
:104E0E00166027C04E2076E204C4097C156419286A
:104E1E00235046A08CF0D24C4F472044554D500A9B
:104E2E00000A4C4F472044554D5020454E440A0031
:104E3E004C4F4720434C45415245440A004C4F4786
:104E4E0020544553540A000A4C4F4720544553549E
:064E5E0020454E440A004D
:104E64000100000027063606F00529061C06F50594
:104E740020202050554D50205445535420202020AC
:104E8400003A06FE071C09D1088608440753595303
:104E940054454D2053455454494E47532000DE0C8D
:104EA400D80C1D09CB0CBE0C1E0920535953544574
:104EB4004D20535441545553202000010013D9CBA5
:104EC4007DCD84CD9CCD8BCD93CD9BCD9CCDA4CDE0
:104ED4009BCDACCDB2CDB9CDC8CDC0CDC7CDCFCD96
:104EE400D7CDDECDE3CDE8CDD9CDEFCDF5CDFBCD1E
:02000004008179
:100000000001010000630C1F173B01040001000008
:0100100000EF
:02000004008278
:090000000058010000C4070000D3
:02000004008575
:100000004E4F20494420534554000000000000009A
:00000001FF
